{
  "_format": "hh-sol-artifact-1",
  "contractName": "BookLibraryV2",
  "sourceName": "contracts/BookLibraryV2.sol",
  "abi": [
    {
      "anonymous": false,
      "inputs": [
        {
          "indexed": true,
          "internalType": "uint256",
          "name": "id",
          "type": "uint256"
        },
        {
          "indexed": false,
          "internalType": "address",
          "name": "borrower",
          "type": "address"
        }
      ],
      "name": "BookBorrowed",
      "type": "event"
    },
    {
      "anonymous": false,
      "inputs": [
        {
          "indexed": false,
          "internalType": "uint256",
          "name": "id",
          "type": "uint256"
        },
        {
          "indexed": false,
          "internalType": "address",
          "name": "borrower",
          "type": "address"
        }
      ],
      "name": "BookReturned",
      "type": "event"
    },
    {
      "anonymous": false,
      "inputs": [
        {
          "indexed": false,
          "internalType": "uint256",
          "name": "id",
          "type": "uint256"
        },
        {
          "indexed": false,
          "internalType": "string",
          "name": "name",
          "type": "string"
        }
      ],
      "name": "NewBookAdded",
      "type": "event"
    },
    {
      "anonymous": false,
      "inputs": [
        {
          "indexed": false,
          "internalType": "uint256",
          "name": "id",
          "type": "uint256"
        },
        {
          "indexed": false,
          "internalType": "uint256",
          "name": "copies",
          "type": "uint256"
        }
      ],
      "name": "NewCopiesAdded",
      "type": "event"
    },
    {
      "anonymous": false,
      "inputs": [
        {
          "indexed": true,
          "internalType": "address",
          "name": "previousOwner",
          "type": "address"
        },
        {
          "indexed": true,
          "internalType": "address",
          "name": "newOwner",
          "type": "address"
        }
      ],
      "name": "OwnershipTransferred",
      "type": "event"
    },
    {
      "inputs": [
        {
          "internalType": "string",
          "name": "_name",
          "type": "string"
        },
        {
          "internalType": "uint256",
          "name": "_copies",
          "type": "uint256"
        }
      ],
      "name": "addBook",
      "outputs": [],
      "stateMutability": "nonpayable",
      "type": "function"
    },
    {
      "inputs": [
        {
          "internalType": "uint256",
          "name": "_id",
          "type": "uint256"
        }
      ],
      "name": "borrowBook",
      "outputs": [],
      "stateMutability": "nonpayable",
      "type": "function"
    },
    {
      "inputs": [],
      "name": "getAvailableBooks",
      "outputs": [
        {
          "components": [
            {
              "internalType": "uint256",
              "name": "id",
              "type": "uint256"
            },
            {
              "internalType": "string",
              "name": "name",
              "type": "string"
            }
          ],
          "internalType": "struct BookLibraryV2.AvailableBook[]",
          "name": "",
          "type": "tuple[]"
        }
      ],
      "stateMutability": "view",
      "type": "function"
    },
    {
      "inputs": [],
      "name": "owner",
      "outputs": [
        {
          "internalType": "address",
          "name": "",
          "type": "address"
        }
      ],
      "stateMutability": "view",
      "type": "function"
    },
    {
      "inputs": [],
      "name": "renounceOwnership",
      "outputs": [],
      "stateMutability": "nonpayable",
      "type": "function"
    },
    {
      "inputs": [
        {
          "internalType": "uint256",
          "name": "_id",
          "type": "uint256"
        }
      ],
      "name": "returnBook",
      "outputs": [],
      "stateMutability": "nonpayable",
      "type": "function"
    },
    {
      "inputs": [
        {
          "internalType": "address",
          "name": "newOwner",
          "type": "address"
        }
      ],
      "name": "transferOwnership",
      "outputs": [],
      "stateMutability": "nonpayable",
      "type": "function"
    }
  ],
  "bytecode": "0x608060405234801561001057600080fd5b5061001a3361001f565b61006f565b600080546001600160a01b038381166001600160a01b0319831681178455604051919092169283917f8be0079c531659141344cd1fd0a4f28419497f9722a3daafe3b4186f6b6457e09190a35050565b6110d88061007e6000396000f3fe608060405234801561001057600080fd5b506004361061007d5760003560e01c80638da5cb5b1161005b5780638da5cb5b146100b2578063ca5140c9146100d2578063d6c084d9146100e5578063f2fde38b146100fa57600080fd5b8063637a387214610082578063715018a6146100975780637e490a9e1461009f575b600080fd5b610095610090366004610d6e565b61010d565b005b610095610399565b6100956100ad366004610de6565b6103cf565b6000546040516001600160a01b0390911681526020015b60405180910390f35b6100956100e0366004610de6565b6105f2565b6100ed6107ed565b6040516100c99190610eab565b610095610108366004610d3e565b610a57565b6000546001600160a01b031633146101405760405162461bcd60e51b815260040161013790610f5a565b60405180910390fd5b600081116101905760405162461bcd60e51b815260206004820152601d60248201527f506c6561736520616464206174206c65617374206f6e6520636f70792e0000006044820152606401610137565b60005b6001548110156102c85783836040516020016101b0929190610dff565b60405160208183030381529060405280519060200120600182815481106101d9576101d9611076565b90600052602060002090600302016000016040516020016101fa9190610e0f565b6040516020818303038152906040528051906020012014156102b657816001828154811061022a5761022a611076565b9060005260206000209060030201600101546102469190610fc5565b6001828154811061025957610259611076565b9060005260206000209060030201600101819055507f4e7fbcc359970a72cdad1ece1300b8b8d9a1a63b3e0fcce89c4db27bcb4c2cf881836040516102a8929190918252602082015260400190565b60405180910390a150505050565b806102c08161102f565b915050610193565b506001805481018082556000829052849184916102e6908290610fdd565b815481106102f6576102f6611076565b600091825260209091206103109360039092020191610ca5565b5060018054829190610323908290610fdd565b8154811061033357610333611076565b9060005260206000209060030201600101819055507f86b447e76b491834cb69eb2a23fccb480f36549da34f97ed20dd3c9a124425d66001808054905061037a9190610fdd565b848460405161038b93929190610f8f565b60405180910390a15b505050565b6000546001600160a01b031633146103c35760405162461bcd60e51b815260040161013790610f5a565b6103cd6000610af2565b565b600154819061041b5760405162461bcd60e51b81526020600482015260186024820152772737903137b7b5b99034b7103a3432903634b13930b93c9760411b6044820152606401610137565b600180546104299190610fdd565b8111156104785760405162461bcd60e51b815260206004820181905260248201527f426f6f6b2077697468207468697320494420646f65736e27742065786973742e6044820152606401610137565b6104828233610b42565b156104cf5760405162461bcd60e51b815260206004820152601d60248201527f506c656173652072657475726e2074686520626f6f6b2066697273742e0000006044820152606401610137565b6000600183815481106104e4576104e4611076565b9060005260206000209060030201600201805490506001848154811061050c5761050c611076565b9060005260206000209060030201600101546105289190610fdd565b1161056c5760405162461bcd60e51b815260206004820152601460248201527327379030bb30b4b630b136329031b7b834b2b99760611b6044820152606401610137565b6001828154811061057f5761057f611076565b600091825260208083206003929092029091016002018054600181018255908352918190209091018054336001600160a01b0319909116811790915560405190815283917f7534124779d4d1eaf9cabba5f94b2b281856aba81c295cde4c9e69483b04b8cc910160405180910390a25050565b600154819061063e5760405162461bcd60e51b81526020600482015260186024820152772737903137b7b5b99034b7103a3432903634b13930b93c9760411b6044820152606401610137565b6001805461064c9190610fdd565b81111561069b5760405162461bcd60e51b815260206004820181905260248201527f426f6f6b2077697468207468697320494420646f65736e27742065786973742e6044820152606401610137565b6106a58233610b42565b15156001146106f65760405162461bcd60e51b815260206004820152601e60248201527f53656e64657220646f65736e27742068617665207468697320626f6f6b2e00006044820152606401610137565b60005b6001838154811061070c5761070c611076565b906000526020600020906003020160020180549050811015610394576001838154811061073b5761073b611076565b9060005260206000209060030201600201818154811061075d5761075d611076565b6000918252602090912001546001600160a01b03163314156107db576107a66001848154811061078f5761078f611076565b906000526020600020906003020160020182610bf1565b604080518481523360208201527f8430f3edf8e599216e82e74036a3997b56dda6283ea97e28f330b76e914eef61910161038b565b806107e58161102f565b9150506106f9565b60606000805b60015481101561087c5760006001828154811061081257610812611076565b9060005260206000209060030201600201805490506001838154811061083a5761083a611076565b9060005260206000209060030201600101546108569190610fdd565b111561086a57816108668161102f565b9250505b806108748161102f565b9150506107f3565b5060008167ffffffffffffffff8111156108985761089861108c565b6040519080825280602002602001820160405280156108de57816020015b6040805180820190915260008152606060208201528152602001906001900390816108b65790505b5090506000915060005b600154811015610a505760006001828154811061090757610907611076565b9060005260206000209060030201600201805490506001838154811061092f5761092f611076565b90600052602060002090600302016001015461094b9190610fdd565b1115610a3e5760405180604001604052808281526020016001838154811061097557610975611076565b9060005260206000209060030201600001805461099190610ff4565b80601f01602080910402602001604051908101604052809291908181526020018280546109bd90610ff4565b8015610a0a5780601f106109df57610100808354040283529160200191610a0a565b820191906000526020600020905b8154815290600101906020018083116109ed57829003601f168201915b5050505050815250828481518110610a2457610a24611076565b60200260200101819052508280610a3a9061102f565b9350505b80610a488161102f565b9150506108e8565b5092915050565b6000546001600160a01b03163314610a815760405162461bcd60e51b815260040161013790610f5a565b6001600160a01b038116610ae65760405162461bcd60e51b815260206004820152602660248201527f4f776e61626c653a206e6577206f776e657220697320746865207a65726f206160448201526564647265737360d01b6064820152608401610137565b610aef81610af2565b50565b600080546001600160a01b038381166001600160a01b0319831681178455604051919092169283917f8be0079c531659141344cd1fd0a4f28419497f9722a3daafe3b4186f6b6457e09190a35050565b6000805b60018481548110610b5957610b59611076565b906000526020600020906003020160020180549050811015610be55760018481548110610b8857610b88611076565b90600052602060002090600302016002018181548110610baa57610baa611076565b6000918252602090912001546001600160a01b0384811691161415610bd3576001915050610beb565b80610bdd8161102f565b915050610b46565b50600090505b92915050565b81548290610c0190600190610fdd565b81548110610c1157610c11611076565b9060005260206000200160009054906101000a90046001600160a01b0316828281548110610c4157610c41611076565b9060005260206000200160006101000a8154816001600160a01b0302191690836001600160a01b0316021790555081805480610c7f57610c7f611060565b600082815260209020810160001990810180546001600160a01b03191690550190555050565b828054610cb190610ff4565b90600052602060002090601f016020900481019282610cd35760008555610d19565b82601f10610cec5782800160ff19823516178555610d19565b82800160010185558215610d19579182015b82811115610d19578235825591602001919060010190610cfe565b50610d25929150610d29565b5090565b5b80821115610d255760008155600101610d2a565b600060208284031215610d5057600080fd5b81356001600160a01b0381168114610d6757600080fd5b9392505050565b600080600060408486031215610d8357600080fd5b833567ffffffffffffffff80821115610d9b57600080fd5b818601915086601f830112610daf57600080fd5b813581811115610dbe57600080fd5b876020828501011115610dd057600080fd5b6020928301989097509590910135949350505050565b600060208284031215610df857600080fd5b5035919050565b8183823760009101908152919050565b600080835481600182811c915080831680610e2b57607f831692505b6020808410821415610e4b57634e487b7160e01b86526022600452602486fd5b818015610e5f5760018114610e7057610e9d565b60ff19861689528489019650610e9d565b60008a81526020902060005b86811015610e955781548b820152908501908301610e7c565b505084890196505b509498975050505050505050565b60006020808301818452808551808352604092508286019150828160051b8701018488016000805b84811015610f4b57898403603f190186528251805185528801518885018890528051888601819052835b81811015610f19578281018b0151878201606001528a01610efd565b81811115610f2a5784606083890101525b5096890196601f01601f191694909401606001935091870191600101610ed3565b50919998505050505050505050565b6020808252818101527f4f776e61626c653a2063616c6c6572206973206e6f7420746865206f776e6572604082015260600190565b83815260406020820152816040820152818360608301376000818301606090810191909152601f909201601f1916010192915050565b60008219821115610fd857610fd861104a565b500190565b600082821015610fef57610fef61104a565b500390565b600181811c9082168061100857607f821691505b6020821081141561102957634e487b7160e01b600052602260045260246000fd5b50919050565b60006000198214156110435761104361104a565b5060010190565b634e487b7160e01b600052601160045260246000fd5b634e487b7160e01b600052603160045260246000fd5b634e487b7160e01b600052603260045260246000fd5b634e487b7160e01b600052604160045260246000fdfea2646970667358221220e527f10496ebb17278fd5926d81621738d55c2fcbed34610987e8d0d39770aa164736f6c63430008070033",
  "linkReferences": {},
  "deployedLinkReferences": {}
}