{
  "_format": "hh-sol-artifact-1",
  "contractName": "Election",
  "sourceName": "contracts/Election.sol",
  "abi": [
    {
      "anonymous": false,
      "inputs": [
        {
          "indexed": false,
          "internalType": "uint256",
          "name": "winner",
          "type": "uint256"
        }
      ],
      "name": "LogElectionEnded",
      "type": "event"
    },
    {
      "anonymous": false,
      "inputs": [
        {
          "indexed": false,
          "internalType": "uint8",
          "name": "winner",
          "type": "uint8"
        },
        {
          "indexed": false,
          "internalType": "uint8",
          "name": "stateSeats",
          "type": "uint8"
        },
        {
          "indexed": false,
          "internalType": "string",
          "name": "state",
          "type": "string"
        }
      ],
      "name": "LogStateResult",
      "type": "event"
    },
    {
      "anonymous": false,
      "inputs": [
        {
          "indexed": true,
          "internalType": "address",
          "name": "previousOwner",
          "type": "address"
        },
        {
          "indexed": true,
          "internalType": "address",
          "name": "newOwner",
          "type": "address"
        }
      ],
      "name": "OwnershipTransferred",
      "type": "event"
    },
    {
      "inputs": [],
      "name": "CANDIDATE_A",
      "outputs": [
        {
          "internalType": "uint8",
          "name": "",
          "type": "uint8"
        }
      ],
      "stateMutability": "view",
      "type": "function"
    },
    {
      "inputs": [],
      "name": "CANDIDATE_B",
      "outputs": [
        {
          "internalType": "uint8",
          "name": "",
          "type": "uint8"
        }
      ],
      "stateMutability": "view",
      "type": "function"
    },
    {
      "inputs": [],
      "name": "currentLeader",
      "outputs": [
        {
          "internalType": "uint8",
          "name": "",
          "type": "uint8"
        }
      ],
      "stateMutability": "view",
      "type": "function"
    },
    {
      "inputs": [],
      "name": "currentSeats",
      "outputs": [
        {
          "internalType": "uint8",
          "name": "",
          "type": "uint8"
        },
        {
          "internalType": "uint8",
          "name": "",
          "type": "uint8"
        }
      ],
      "stateMutability": "view",
      "type": "function"
    },
    {
      "inputs": [],
      "name": "electionEnded",
      "outputs": [
        {
          "internalType": "bool",
          "name": "",
          "type": "bool"
        }
      ],
      "stateMutability": "view",
      "type": "function"
    },
    {
      "inputs": [],
      "name": "endElection",
      "outputs": [],
      "stateMutability": "nonpayable",
      "type": "function"
    },
    {
      "inputs": [],
      "name": "owner",
      "outputs": [
        {
          "internalType": "address",
          "name": "",
          "type": "address"
        }
      ],
      "stateMutability": "view",
      "type": "function"
    },
    {
      "inputs": [],
      "name": "renounceOwnership",
      "outputs": [],
      "stateMutability": "nonpayable",
      "type": "function"
    },
    {
      "inputs": [
        {
          "internalType": "string",
          "name": "",
          "type": "string"
        }
      ],
      "name": "resultsSubmitted",
      "outputs": [
        {
          "internalType": "bool",
          "name": "",
          "type": "bool"
        }
      ],
      "stateMutability": "view",
      "type": "function"
    },
    {
      "inputs": [
        {
          "internalType": "uint8",
          "name": "",
          "type": "uint8"
        }
      ],
      "name": "seats",
      "outputs": [
        {
          "internalType": "uint8",
          "name": "",
          "type": "uint8"
        }
      ],
      "stateMutability": "view",
      "type": "function"
    },
    {
      "inputs": [
        {
          "components": [
            {
              "internalType": "string",
              "name": "name",
              "type": "string"
            },
            {
              "internalType": "uint256",
              "name": "votesCandidateA",
              "type": "uint256"
            },
            {
              "internalType": "uint256",
              "name": "votesCandidateB",
              "type": "uint256"
            },
            {
              "internalType": "uint8",
              "name": "stateSeats",
              "type": "uint8"
            }
          ],
          "internalType": "struct Election.StateResult",
          "name": "result",
          "type": "tuple"
        }
      ],
      "name": "submitStateResult",
      "outputs": [],
      "stateMutability": "nonpayable",
      "type": "function"
    },
    {
      "inputs": [
        {
          "internalType": "address",
          "name": "newOwner",
          "type": "address"
        }
      ],
      "name": "transferOwnership",
      "outputs": [],
      "stateMutability": "nonpayable",
      "type": "function"
    }
  ],
  "bytecode": "0x608060405234801561001057600080fd5b5061001a3361001f565b61006f565b600080546001600160a01b038381166001600160a01b0319831681178455604051919092169283917f8be0079c531659141344cd1fd0a4f28419497f9722a3daafe3b4186f6b6457e09190a35050565b610a2a8061007e6000396000f3fe608060405234801561001057600080fd5b50600436106100b45760003560e01c80637d7f2434116100715780637d7f2434146101b75780638da5cb5b146101bf578063ac4bd53a146101da578063c94ca9e3146101e2578063e494a883146101f6578063f2fde38b1461020957600080fd5b806323056a39146100b9578063306bc947146100d857806337ad98ec1461014457806359f7846814610182578063713d87c51461018c578063715018a6146101af575b600080fd5b6100c1600181565b60405160ff90911681526020015b60405180910390f35b600160209081527fcc69885fda6bcc1a4ace058b4a62bf5e179ea78fd58a1ccd71c22cc9b688792f5460026000527fd9d16d34ffb15ba3a3d852f0d403e2ce1d691fb54de27ac87cd2f993f3ec330f546040805160ff93841681529290911692820192909252016100cf565b6101726101523660046107c6565b805160208183018101805160028252928201919093012091525460ff1681565b60405190151581526020016100cf565b61018a61021c565b005b6100c161019a3660046108b2565b60016020526000908152604090205460ff1681565b61018a6102f8565b6100c1600281565b6000546040516001600160a01b0390911681526020016100cf565b6100c161032e565b60005461017290600160a01b900460ff1681565b61018a610204366004610877565b6103f8565b61018a610217366004610796565b6106ab565b600054600160a01b900460ff161561027b5760405162461bcd60e51b815260206004820152601e60248201527f54686520656c656374696f6e2068617320656e64656420616c7265616479000060448201526064015b60405180910390fd5b6000546001600160a01b031633146102a55760405162461bcd60e51b8152600401610272906108e5565b6000805460ff60a01b1916600160a01b1790557faacb23683ec1a0e9b52f9a6264edf58ad322ac62079d65ea7363a2d400f439f46102e161032e565b60405160ff909116815260200160405180910390a1565b6000546001600160a01b031633146103225760405162461bcd60e51b8152600401610272906108e5565b61032c6000610746565b565b600160208190527fd9d16d34ffb15ba3a3d852f0d403e2ce1d691fb54de27ac87cd2f993f3ec330f5460009182527fcc69885fda6bcc1a4ace058b4a62bf5e179ea78fd58a1ccd71c22cc9b688792f5460ff918216911611156103915750600190565b60016020527fcc69885fda6bcc1a4ace058b4a62bf5e179ea78fd58a1ccd71c22cc9b688792f5460026000527fd9d16d34ffb15ba3a3d852f0d403e2ce1d691fb54de27ac87cd2f993f3ec330f5460ff918216911611156103f25750600290565b50600090565b600054600160a01b900460ff16156104525760405162461bcd60e51b815260206004820152601e60248201527f54686520656c656374696f6e2068617320656e64656420616c726561647900006044820152606401610272565b6000546001600160a01b0316331461047c5760405162461bcd60e51b8152600401610272906108e5565b600061048e60808301606084016108b2565b60ff16116104de5760405162461bcd60e51b815260206004820181905260248201527f537461746573206d7573742068617665206174206c65617374203120736561746044820152606401610272565b80604001358160200135141561052e5760405162461bcd60e51b815260206004820152601560248201527454686572652063616e6e6f7420626520612074696560581b6044820152606401610272565b600261053a828061095d565b6040516105489291906108d5565b9081526040519081900360200190205460ff16156105a85760405162461bcd60e51b815260206004820152601d60248201527f5468697320737461746520616c7265616479207375626d6974746564210000006044820152606401610272565b60008160400135826020013511156105c2575060016105c6565b5060025b6105d660808301606084016108b2565b60ff8083166000908152600160205260408120805490926105f9918591166109ab565b92506101000a81548160ff021916908360ff16021790555060016002838060000190610625919061095d565b6040516106339291906108d5565b908152604051908190036020019020805491151560ff199092169190911790557fa2e71fe38f1afa3762cf9d2ea7bb6a4d272a90fd6f9392f3acedd3b542046b468161068560808501606086016108b2565b61068f858061095d565b60405161069f949392919061091a565b60405180910390a15050565b6000546001600160a01b031633146106d55760405162461bcd60e51b8152600401610272906108e5565b6001600160a01b03811661073a5760405162461bcd60e51b815260206004820152602660248201527f4f776e61626c653a206e6577206f776e657220697320746865207a65726f206160448201526564647265737360d01b6064820152608401610272565b61074381610746565b50565b600080546001600160a01b038381166001600160a01b0319831681178455604051919092169283917f8be0079c531659141344cd1fd0a4f28419497f9722a3daafe3b4186f6b6457e09190a35050565b6000602082840312156107a857600080fd5b81356001600160a01b03811681146107bf57600080fd5b9392505050565b6000602082840312156107d857600080fd5b813567ffffffffffffffff808211156107f057600080fd5b818401915084601f83011261080457600080fd5b813581811115610816576108166109de565b604051601f8201601f19908116603f0116810190838211818310171561083e5761083e6109de565b8160405282815287602084870101111561085757600080fd5b826020860160208301376000928101602001929092525095945050505050565b60006020828403121561088957600080fd5b813567ffffffffffffffff8111156108a057600080fd5b8201608081850312156107bf57600080fd5b6000602082840312156108c457600080fd5b813560ff811681146107bf57600080fd5b8183823760009101908152919050565b6020808252818101527f4f776e61626c653a2063616c6c6572206973206e6f7420746865206f776e6572604082015260600190565b60ff8516815260ff8416602082015260606040820152816060820152818360808301376000818301608090810191909152601f909201601f191601019392505050565b6000808335601e1984360301811261097457600080fd5b83018035915067ffffffffffffffff82111561098f57600080fd5b6020019150368190038213156109a457600080fd5b9250929050565b600060ff821660ff84168060ff038211156109d657634e487b7160e01b600052601160045260246000fd5b019392505050565b634e487b7160e01b600052604160045260246000fdfea2646970667358221220c34454fcc729c30f36dd4287e085685d5b70dc825adfd5a239e524dccbaa5d3c64736f6c63430008070033",
  "linkReferences": {},
  "deployedLinkReferences": {}
}