{
  "_format": "hh-sol-artifact-1",
  "contractName": "NftCollection",
  "sourceName": "contracts/NftCollection.sol",
  "abi": [
    {
      "inputs": [
        {
          "internalType": "string",
          "name": "_name",
          "type": "string"
        },
        {
          "internalType": "string",
          "name": "_symbol",
          "type": "string"
        },
        {
          "internalType": "address",
          "name": "_marketplace",
          "type": "address"
        }
      ],
      "stateMutability": "nonpayable",
      "type": "constructor"
    },
    {
      "anonymous": false,
      "inputs": [
        {
          "indexed": true,
          "internalType": "address",
          "name": "owner",
          "type": "address"
        },
        {
          "indexed": true,
          "internalType": "address",
          "name": "approved",
          "type": "address"
        },
        {
          "indexed": true,
          "internalType": "uint256",
          "name": "tokenId",
          "type": "uint256"
        }
      ],
      "name": "Approval",
      "type": "event"
    },
    {
      "anonymous": false,
      "inputs": [
        {
          "indexed": true,
          "internalType": "address",
          "name": "owner",
          "type": "address"
        },
        {
          "indexed": true,
          "internalType": "address",
          "name": "operator",
          "type": "address"
        },
        {
          "indexed": false,
          "internalType": "bool",
          "name": "approved",
          "type": "bool"
        }
      ],
      "name": "ApprovalForAll",
      "type": "event"
    },
    {
      "anonymous": false,
      "inputs": [
        {
          "indexed": true,
          "internalType": "address",
          "name": "previousOwner",
          "type": "address"
        },
        {
          "indexed": true,
          "internalType": "address",
          "name": "newOwner",
          "type": "address"
        }
      ],
      "name": "OwnershipTransferred",
      "type": "event"
    },
    {
      "anonymous": false,
      "inputs": [
        {
          "indexed": true,
          "internalType": "address",
          "name": "from",
          "type": "address"
        },
        {
          "indexed": true,
          "internalType": "address",
          "name": "to",
          "type": "address"
        },
        {
          "indexed": true,
          "internalType": "uint256",
          "name": "tokenId",
          "type": "uint256"
        }
      ],
      "name": "Transfer",
      "type": "event"
    },
    {
      "inputs": [
        {
          "internalType": "address",
          "name": "to",
          "type": "address"
        },
        {
          "internalType": "uint256",
          "name": "tokenId",
          "type": "uint256"
        }
      ],
      "name": "approve",
      "outputs": [],
      "stateMutability": "nonpayable",
      "type": "function"
    },
    {
      "inputs": [
        {
          "internalType": "address",
          "name": "owner",
          "type": "address"
        }
      ],
      "name": "balanceOf",
      "outputs": [
        {
          "internalType": "uint256",
          "name": "",
          "type": "uint256"
        }
      ],
      "stateMutability": "view",
      "type": "function"
    },
    {
      "inputs": [
        {
          "internalType": "uint256",
          "name": "tokenId",
          "type": "uint256"
        }
      ],
      "name": "getApproved",
      "outputs": [
        {
          "internalType": "address",
          "name": "",
          "type": "address"
        }
      ],
      "stateMutability": "view",
      "type": "function"
    },
    {
      "inputs": [
        {
          "internalType": "address",
          "name": "owner",
          "type": "address"
        },
        {
          "internalType": "address",
          "name": "operator",
          "type": "address"
        }
      ],
      "name": "isApprovedForAll",
      "outputs": [
        {
          "internalType": "bool",
          "name": "",
          "type": "bool"
        }
      ],
      "stateMutability": "view",
      "type": "function"
    },
    {
      "inputs": [],
      "name": "marketplace",
      "outputs": [
        {
          "internalType": "contract NftMarketplaceInterface",
          "name": "",
          "type": "address"
        }
      ],
      "stateMutability": "view",
      "type": "function"
    },
    {
      "inputs": [],
      "name": "name",
      "outputs": [
        {
          "internalType": "string",
          "name": "",
          "type": "string"
        }
      ],
      "stateMutability": "view",
      "type": "function"
    },
    {
      "inputs": [],
      "name": "owner",
      "outputs": [
        {
          "internalType": "address",
          "name": "",
          "type": "address"
        }
      ],
      "stateMutability": "view",
      "type": "function"
    },
    {
      "inputs": [
        {
          "internalType": "uint256",
          "name": "tokenId",
          "type": "uint256"
        }
      ],
      "name": "ownerOf",
      "outputs": [
        {
          "internalType": "address",
          "name": "",
          "type": "address"
        }
      ],
      "stateMutability": "view",
      "type": "function"
    },
    {
      "inputs": [],
      "name": "renounceOwnership",
      "outputs": [],
      "stateMutability": "nonpayable",
      "type": "function"
    },
    {
      "inputs": [
        {
          "internalType": "address",
          "name": "_to",
          "type": "address"
        },
        {
          "internalType": "string",
          "name": "_uri",
          "type": "string"
        }
      ],
      "name": "safeMint",
      "outputs": [],
      "stateMutability": "nonpayable",
      "type": "function"
    },
    {
      "inputs": [
        {
          "internalType": "address",
          "name": "from",
          "type": "address"
        },
        {
          "internalType": "address",
          "name": "to",
          "type": "address"
        },
        {
          "internalType": "uint256",
          "name": "tokenId",
          "type": "uint256"
        }
      ],
      "name": "safeTransferFrom",
      "outputs": [],
      "stateMutability": "nonpayable",
      "type": "function"
    },
    {
      "inputs": [
        {
          "internalType": "address",
          "name": "from",
          "type": "address"
        },
        {
          "internalType": "address",
          "name": "to",
          "type": "address"
        },
        {
          "internalType": "uint256",
          "name": "tokenId",
          "type": "uint256"
        },
        {
          "internalType": "bytes",
          "name": "_data",
          "type": "bytes"
        }
      ],
      "name": "safeTransferFrom",
      "outputs": [],
      "stateMutability": "nonpayable",
      "type": "function"
    },
    {
      "inputs": [
        {
          "internalType": "address",
          "name": "operator",
          "type": "address"
        },
        {
          "internalType": "bool",
          "name": "approved",
          "type": "bool"
        }
      ],
      "name": "setApprovalForAll",
      "outputs": [],
      "stateMutability": "nonpayable",
      "type": "function"
    },
    {
      "inputs": [
        {
          "internalType": "bytes4",
          "name": "interfaceId",
          "type": "bytes4"
        }
      ],
      "name": "supportsInterface",
      "outputs": [
        {
          "internalType": "bool",
          "name": "",
          "type": "bool"
        }
      ],
      "stateMutability": "view",
      "type": "function"
    },
    {
      "inputs": [],
      "name": "symbol",
      "outputs": [
        {
          "internalType": "string",
          "name": "",
          "type": "string"
        }
      ],
      "stateMutability": "view",
      "type": "function"
    },
    {
      "inputs": [
        {
          "internalType": "uint256",
          "name": "index",
          "type": "uint256"
        }
      ],
      "name": "tokenByIndex",
      "outputs": [
        {
          "internalType": "uint256",
          "name": "",
          "type": "uint256"
        }
      ],
      "stateMutability": "view",
      "type": "function"
    },
    {
      "inputs": [
        {
          "internalType": "address",
          "name": "owner",
          "type": "address"
        },
        {
          "internalType": "uint256",
          "name": "index",
          "type": "uint256"
        }
      ],
      "name": "tokenOfOwnerByIndex",
      "outputs": [
        {
          "internalType": "uint256",
          "name": "",
          "type": "uint256"
        }
      ],
      "stateMutability": "view",
      "type": "function"
    },
    {
      "inputs": [
        {
          "internalType": "uint256",
          "name": "tokenId",
          "type": "uint256"
        }
      ],
      "name": "tokenURI",
      "outputs": [
        {
          "internalType": "string",
          "name": "",
          "type": "string"
        }
      ],
      "stateMutability": "view",
      "type": "function"
    },
    {
      "inputs": [],
      "name": "totalSupply",
      "outputs": [
        {
          "internalType": "uint256",
          "name": "",
          "type": "uint256"
        }
      ],
      "stateMutability": "view",
      "type": "function"
    },
    {
      "inputs": [
        {
          "internalType": "address",
          "name": "from",
          "type": "address"
        },
        {
          "internalType": "address",
          "name": "to",
          "type": "address"
        },
        {
          "internalType": "uint256",
          "name": "tokenId",
          "type": "uint256"
        }
      ],
      "name": "transferFrom",
      "outputs": [],
      "stateMutability": "nonpayable",
      "type": "function"
    },
    {
      "inputs": [
        {
          "internalType": "address",
          "name": "newOwner",
          "type": "address"
        }
      ],
      "name": "transferOwnership",
      "outputs": [],
      "stateMutability": "nonpayable",
      "type": "function"
    }
  ],
  "bytecode": "0x60806040523480156200001157600080fd5b50604051620021b3380380620021b383398101604081905262000034916200025c565b8251839083906200004d906000906020850190620000ff565b50805162000063906001906020840190620000ff565b505050620000806200007a620000a960201b60201c565b620000ad565b600d80546001600160a01b0319166001600160a01b0392909216919091179055506200033c9050565b3390565b600b80546001600160a01b038381166001600160a01b0319831681179093556040519116919082907f8be0079c531659141344cd1fd0a4f28419497f9722a3daafe3b4186f6b6457e090600090a35050565b8280546200010d90620002e9565b90600052602060002090601f0160209004810192826200013157600085556200017c565b82601f106200014c57805160ff19168380011785556200017c565b828001600101855582156200017c579182015b828111156200017c5782518255916020019190600101906200015f565b506200018a9291506200018e565b5090565b5b808211156200018a57600081556001016200018f565b600082601f830112620001b757600080fd5b81516001600160401b0380821115620001d457620001d462000326565b604051601f8301601f19908116603f01168101908282118183101715620001ff57620001ff62000326565b816040528381526020925086838588010111156200021c57600080fd5b600091505b8382101562000240578582018301518183018401529082019062000221565b83821115620002525760008385830101525b9695505050505050565b6000806000606084860312156200027257600080fd5b83516001600160401b03808211156200028a57600080fd5b6200029887838801620001a5565b94506020860151915080821115620002af57600080fd5b50620002be86828701620001a5565b604086015190935090506001600160a01b0381168114620002de57600080fd5b809150509250925092565b600181811c90821680620002fe57607f821691505b602082108114156200032057634e487b7160e01b600052602260045260246000fd5b50919050565b634e487b7160e01b600052604160045260246000fd5b611e67806200034c6000396000f3fe608060405234801561001057600080fd5b50600436106101375760003560e01c806370a08231116100b8578063abc8c7af1161007c578063abc8c7af14610271578063b88d4fde14610284578063c87b56dd14610297578063d204c45e146102aa578063e985e9c5146102bd578063f2fde38b146102f957600080fd5b806370a082311461022a578063715018a61461023d5780638da5cb5b1461024557806395d89b4114610256578063a22cb4651461025e57600080fd5b806323b872dd116100ff57806323b872dd146101cb5780632f745c59146101de57806342842e0e146101f15780634f6ccce7146102045780636352211e1461021757600080fd5b806301ffc9a71461013c57806306fdde0314610164578063081812fc14610179578063095ea7b3146101a457806318160ddd146101b9575b600080fd5b61014f61014a366004611ae5565b61030c565b60405190151581526020015b60405180910390f35b61016c61031d565b60405161015b9190611be9565b61018c610187366004611b1f565b6103af565b6040516001600160a01b03909116815260200161015b565b6101b76101b2366004611abb565b61043c565b005b6008545b60405190815260200161015b565b6101b76101d9366004611965565b610552565b6101bd6101ec366004611abb565b610583565b6101b76101ff366004611965565b610619565b6101bd610212366004611b1f565b610634565b61018c610225366004611b1f565b6106c7565b6101bd610238366004611917565b61073e565b6101b76107c5565b600b546001600160a01b031661018c565b61016c6107fb565b6101b761026c366004611a1d565b61080a565b600d5461018c906001600160a01b031681565b6101b76102923660046119a1565b610819565b61016c6102a5366004611b1f565b610851565b6101b76102b8366004611a59565b61085c565b61014f6102cb366004611932565b6001600160a01b03918216600090815260056020908152604080832093909416825291909152205460ff1690565b6101b7610307366004611917565b6108b5565b600061031782610950565b92915050565b60606000805461032c90611d43565b80601f016020809104026020016040519081016040528092919081815260200182805461035890611d43565b80156103a55780601f1061037a576101008083540402835291602001916103a5565b820191906000526020600020905b81548152906001019060200180831161038857829003601f168201915b5050505050905090565b60006103ba82610975565b6104205760405162461bcd60e51b815260206004820152602c60248201527f4552433732313a20617070726f76656420717565727920666f72206e6f6e657860448201526b34b9ba32b73a103a37b5b2b760a11b60648201526084015b60405180910390fd5b506000908152600460205260409020546001600160a01b031690565b6000610447826106c7565b9050806001600160a01b0316836001600160a01b031614156104b55760405162461bcd60e51b815260206004820152602160248201527f4552433732313a20617070726f76616c20746f2063757272656e74206f776e656044820152603960f91b6064820152608401610417565b336001600160a01b03821614806104d157506104d181336102cb565b6105435760405162461bcd60e51b815260206004820152603860248201527f4552433732313a20617070726f76652063616c6c6572206973206e6f74206f7760448201527f6e6572206e6f7220617070726f76656420666f7220616c6c00000000000000006064820152608401610417565b61054d8383610992565b505050565b61055c3382610a00565b6105785760405162461bcd60e51b815260040161041790611c83565b61054d838383610aea565b600061058e8361073e565b82106105f05760405162461bcd60e51b815260206004820152602b60248201527f455243373231456e756d657261626c653a206f776e657220696e646578206f7560448201526a74206f6620626f756e647360a81b6064820152608401610417565b506001600160a01b03919091166000908152600660209081526040808320938352929052205490565b61054d83838360405180602001604052806000815250610819565b600061063f60085490565b82106106a25760405162461bcd60e51b815260206004820152602c60248201527f455243373231456e756d657261626c653a20676c6f62616c20696e646578206f60448201526b7574206f6620626f756e647360a01b6064820152608401610417565b600882815481106106b5576106b5611def565b90600052602060002001549050919050565b6000818152600260205260408120546001600160a01b0316806103175760405162461bcd60e51b815260206004820152602960248201527f4552433732313a206f776e657220717565727920666f72206e6f6e657869737460448201526832b73a103a37b5b2b760b91b6064820152608401610417565b60006001600160a01b0382166107a95760405162461bcd60e51b815260206004820152602a60248201527f4552433732313a2062616c616e636520717565727920666f7220746865207a65604482015269726f206164647265737360b01b6064820152608401610417565b506001600160a01b031660009081526003602052604090205490565b600b546001600160a01b031633146107ef5760405162461bcd60e51b815260040161041790611c4e565b6107f96000610c97565b565b60606001805461032c90611d43565b610815338383610ce9565b5050565b6108233383610a00565b61083f5760405162461bcd60e51b815260040161041790611c83565b61084b84848484610db8565b50505050565b606061031782610deb565b600b546001600160a01b031633146108865760405162461bcd60e51b815260040161041790611c4e565b6000610891600c5490565b90506108a1600c80546001019055565b6108ab8382610f5a565b61054d8183610f74565b600b546001600160a01b031633146108df5760405162461bcd60e51b815260040161041790611c4e565b6001600160a01b0381166109445760405162461bcd60e51b815260206004820152602660248201527f4f776e61626c653a206e6577206f776e657220697320746865207a65726f206160448201526564647265737360d01b6064820152608401610417565b61094d81610c97565b50565b60006001600160e01b0319821663780e9d6360e01b1480610317575061031782610fff565b6000908152600260205260409020546001600160a01b0316151590565b600081815260046020526040902080546001600160a01b0319166001600160a01b03841690811790915581906109c7826106c7565b6001600160a01b03167f8c5be1e5ebec7d5bd14f71427d1e84f3dd0314c0f7b2291e5b200ac8c7c3b92560405160405180910390a45050565b6000610a0b82610975565b610a6c5760405162461bcd60e51b815260206004820152602c60248201527f4552433732313a206f70657261746f7220717565727920666f72206e6f6e657860448201526b34b9ba32b73a103a37b5b2b760a11b6064820152608401610417565b6000610a77836106c7565b9050806001600160a01b0316846001600160a01b03161480610abe57506001600160a01b0380821660009081526005602090815260408083209388168352929052205460ff165b80610ae25750836001600160a01b0316610ad7846103af565b6001600160a01b0316145b949350505050565b826001600160a01b0316610afd826106c7565b6001600160a01b031614610b615760405162461bcd60e51b815260206004820152602560248201527f4552433732313a207472616e736665722066726f6d20696e636f72726563742060448201526437bbb732b960d91b6064820152608401610417565b6001600160a01b038216610bc35760405162461bcd60e51b8152602060048201526024808201527f4552433732313a207472616e7366657220746f20746865207a65726f206164646044820152637265737360e01b6064820152608401610417565b610bce83838361104f565b610bd9600082610992565b6001600160a01b0383166000908152600360205260408120805460019290610c02908490611d00565b90915550506001600160a01b0382166000908152600360205260408120805460019290610c30908490611cd4565b909155505060008181526002602052604080822080546001600160a01b0319166001600160a01b0386811691821790925591518493918716917fddf252ad1be2c89b69c2b068fc378daa952ba7f163c4a11628f55a4df523b3ef91a461054d83838361105a565b600b80546001600160a01b038381166001600160a01b0319831681179093556040519116919082907f8be0079c531659141344cd1fd0a4f28419497f9722a3daafe3b4186f6b6457e090600090a35050565b816001600160a01b0316836001600160a01b03161415610d4b5760405162461bcd60e51b815260206004820152601960248201527f4552433732313a20617070726f766520746f2063616c6c6572000000000000006044820152606401610417565b6001600160a01b03838116600081815260056020908152604080832094871680845294825291829020805460ff191686151590811790915591519182527f17307eab39ab6107e8899845ad3d59bd9653f200f220920489ca2b5937696c31910160405180910390a3505050565b610dc3848484610aea565b610dcf84848484611147565b61084b5760405162461bcd60e51b815260040161041790611bfc565b6060610df682610975565b610e5c5760405162461bcd60e51b815260206004820152603160248201527f45524337323155524953746f726167653a2055524920717565727920666f72206044820152703737b732bc34b9ba32b73a103a37b5b2b760791b6064820152608401610417565b6000828152600a602052604081208054610e7590611d43565b80601f0160208091040260200160405190810160405280929190818152602001828054610ea190611d43565b8015610eee5780601f10610ec357610100808354040283529160200191610eee565b820191906000526020600020905b815481529060010190602001808311610ed157829003601f168201915b505050505090506000610f0c60408051602081019091526000815290565b9050805160001415610f1f575092915050565b815115610f51578082604051602001610f39929190611b7d565b60405160208183030381529060405292505050919050565b610ae284611254565b61081582826040518060200160405280600081525061132c565b610f7d82610975565b610fe05760405162461bcd60e51b815260206004820152602e60248201527f45524337323155524953746f726167653a2055524920736574206f66206e6f6e60448201526d32bc34b9ba32b73a103a37b5b2b760911b6064820152608401610417565b6000828152600a60209081526040909120825161054d928401906117ec565b60006001600160e01b031982166380ac58cd60e01b148061103057506001600160e01b03198216635b5e139f60e01b145b8061031757506301ffc9a760e01b6001600160e01b0319831614610317565b61054d83838361135f565b600d54604051617df360e41b8152306004820152602481018390526001600160a01b03909116906207df309060440160206040518083038186803b1580156110a157600080fd5b505afa1580156110b5573d6000803e3d6000fd5b505050506040513d601f19601f820116820180604052508101906110d99190611b38565b1561054d57600d5460405163596ef70360e11b8152306004820152602481018390526001600160a01b039091169063b2ddee0690604401600060405180830381600087803b15801561112a57600080fd5b505af115801561113e573d6000803e3d6000fd5b50505050505050565b60006001600160a01b0384163b1561124957604051630a85bd0160e11b81526001600160a01b0385169063150b7a029061118b903390899088908890600401611bac565b602060405180830381600087803b1580156111a557600080fd5b505af19250505080156111d5575060408051601f3d908101601f191682019092526111d291810190611b02565b60015b61122f573d808015611203576040519150601f19603f3d011682016040523d82523d6000602084013e611208565b606091505b5080516112275760405162461bcd60e51b815260040161041790611bfc565b805181602001fd5b6001600160e01b031916630a85bd0160e11b149050610ae2565b506001949350505050565b606061125f82610975565b6112c35760405162461bcd60e51b815260206004820152602f60248201527f4552433732314d657461646174613a2055524920717565727920666f72206e6f60448201526e3732bc34b9ba32b73a103a37b5b2b760891b6064820152608401610417565b60006112da60408051602081019091526000815290565b905060008151116112fa5760405180602001604052806000815250611325565b8061130484611417565b604051602001611315929190611b7d565b6040516020818303038152906040525b9392505050565b6113368383611515565b6113436000848484611147565b61054d5760405162461bcd60e51b815260040161041790611bfc565b6001600160a01b0383166113ba576113b581600880546000838152600960205260408120829055600182018355919091527ff3f7a9fe364faab93b216da50a3214154f22a0a2b415b23a84c8169e8b636ee30155565b6113dd565b816001600160a01b0316836001600160a01b0316146113dd576113dd838261165c565b6001600160a01b0382166113f45761054d816116f9565b826001600160a01b0316826001600160a01b03161461054d5761054d82826117a8565b60608161143b5750506040805180820190915260018152600360fc1b602082015290565b8160005b8115611465578061144f81611d7e565b915061145e9050600a83611cec565b915061143f565b60008167ffffffffffffffff81111561148057611480611e05565b6040519080825280601f01601f1916602001820160405280156114aa576020820181803683370190505b5090505b8415610ae2576114bf600183611d00565b91506114cc600a86611d99565b6114d7906030611cd4565b60f81b8183815181106114ec576114ec611def565b60200101906001600160f81b031916908160001a90535061150e600a86611cec565b94506114ae565b6001600160a01b03821661156b5760405162461bcd60e51b815260206004820181905260248201527f4552433732313a206d696e7420746f20746865207a65726f20616464726573736044820152606401610417565b61157481610975565b156115c15760405162461bcd60e51b815260206004820152601c60248201527f4552433732313a20746f6b656e20616c7265616479206d696e746564000000006044820152606401610417565b6115cd6000838361104f565b6001600160a01b03821660009081526003602052604081208054600192906115f6908490611cd4565b909155505060008181526002602052604080822080546001600160a01b0319166001600160a01b03861690811790915590518392907fddf252ad1be2c89b69c2b068fc378daa952ba7f163c4a11628f55a4df523b3ef908290a46108156000838361105a565b600060016116698461073e565b6116739190611d00565b6000838152600760205260409020549091508082146116c6576001600160a01b03841660009081526006602090815260408083208584528252808320548484528184208190558352600790915290208190555b5060009182526007602090815260408084208490556001600160a01b039094168352600681528383209183525290812055565b60085460009061170b90600190611d00565b6000838152600960205260408120546008805493945090928490811061173357611733611def565b90600052602060002001549050806008838154811061175457611754611def565b600091825260208083209091019290925582815260099091526040808220849055858252812055600880548061178c5761178c611dd9565b6001900381819060005260206000200160009055905550505050565b60006117b38361073e565b6001600160a01b039093166000908152600660209081526040808320868452825280832085905593825260079052919091209190915550565b8280546117f890611d43565b90600052602060002090601f01602090048101928261181a5760008555611860565b82601f1061183357805160ff1916838001178555611860565b82800160010185558215611860579182015b82811115611860578251825591602001919060010190611845565b5061186c929150611870565b5090565b5b8082111561186c5760008155600101611871565b600067ffffffffffffffff808411156118a0576118a0611e05565b604051601f8501601f19908116603f011681019082821181831017156118c8576118c8611e05565b816040528093508581528686860111156118e157600080fd5b858560208301376000602087830101525050509392505050565b80356001600160a01b038116811461191257600080fd5b919050565b60006020828403121561192957600080fd5b611325826118fb565b6000806040838503121561194557600080fd5b61194e836118fb565b915061195c602084016118fb565b90509250929050565b60008060006060848603121561197a57600080fd5b611983846118fb565b9250611991602085016118fb565b9150604084013590509250925092565b600080600080608085870312156119b757600080fd5b6119c0856118fb565b93506119ce602086016118fb565b925060408501359150606085013567ffffffffffffffff8111156119f157600080fd5b8501601f81018713611a0257600080fd5b611a1187823560208401611885565b91505092959194509250565b60008060408385031215611a3057600080fd5b611a39836118fb565b915060208301358015158114611a4e57600080fd5b809150509250929050565b60008060408385031215611a6c57600080fd5b611a75836118fb565b9150602083013567ffffffffffffffff811115611a9157600080fd5b8301601f81018513611aa257600080fd5b611ab185823560208401611885565b9150509250929050565b60008060408385031215611ace57600080fd5b611ad7836118fb565b946020939093013593505050565b600060208284031215611af757600080fd5b813561132581611e1b565b600060208284031215611b1457600080fd5b815161132581611e1b565b600060208284031215611b3157600080fd5b5035919050565b600060208284031215611b4a57600080fd5b5051919050565b60008151808452611b69816020860160208601611d17565b601f01601f19169290920160200192915050565b60008351611b8f818460208801611d17565b835190830190611ba3818360208801611d17565b01949350505050565b6001600160a01b0385811682528416602082015260408101839052608060608201819052600090611bdf90830184611b51565b9695505050505050565b6020815260006113256020830184611b51565b60208082526032908201527f4552433732313a207472616e7366657220746f206e6f6e20455243373231526560408201527131b2b4bb32b91034b6b83632b6b2b73a32b960711b606082015260800190565b6020808252818101527f4f776e61626c653a2063616c6c6572206973206e6f7420746865206f776e6572604082015260600190565b60208082526031908201527f4552433732313a207472616e736665722063616c6c6572206973206e6f74206f6040820152701ddb995c881b9bdc88185c1c1c9bdd9959607a1b606082015260800190565b60008219821115611ce757611ce7611dad565b500190565b600082611cfb57611cfb611dc3565b500490565b600082821015611d1257611d12611dad565b500390565b60005b83811015611d32578181015183820152602001611d1a565b8381111561084b5750506000910152565b600181811c90821680611d5757607f821691505b60208210811415611d7857634e487b7160e01b600052602260045260246000fd5b50919050565b6000600019821415611d9257611d92611dad565b5060010190565b600082611da857611da8611dc3565b500690565b634e487b7160e01b600052601160045260246000fd5b634e487b7160e01b600052601260045260246000fd5b634e487b7160e01b600052603160045260246000fd5b634e487b7160e01b600052603260045260246000fd5b634e487b7160e01b600052604160045260246000fd5b6001600160e01b03198116811461094d57600080fdfea264697066735822122089bea5e65a6d76c88886fd1a8e434e8a4694a182bb6e4056650116153e1d826d64736f6c63430008070033",
  "linkReferences": {},
  "deployedLinkReferences": {}
}