{
  "_format": "hh-sol-artifact-1",
  "contractName": "NftCollection",
  "sourceName": "contracts/NftCollection.sol",
  "abi": [
    {
      "inputs": [
        {
          "internalType": "string",
          "name": "_name",
          "type": "string"
        },
        {
          "internalType": "string",
          "name": "_symbol",
          "type": "string"
        },
        {
          "internalType": "address",
          "name": "_marketplace",
          "type": "address"
        }
      ],
      "stateMutability": "nonpayable",
      "type": "constructor"
    },
    {
      "anonymous": false,
      "inputs": [
        {
          "indexed": true,
          "internalType": "address",
          "name": "owner",
          "type": "address"
        },
        {
          "indexed": true,
          "internalType": "address",
          "name": "approved",
          "type": "address"
        },
        {
          "indexed": true,
          "internalType": "uint256",
          "name": "tokenId",
          "type": "uint256"
        }
      ],
      "name": "Approval",
      "type": "event"
    },
    {
      "anonymous": false,
      "inputs": [
        {
          "indexed": true,
          "internalType": "address",
          "name": "owner",
          "type": "address"
        },
        {
          "indexed": true,
          "internalType": "address",
          "name": "operator",
          "type": "address"
        },
        {
          "indexed": false,
          "internalType": "bool",
          "name": "approved",
          "type": "bool"
        }
      ],
      "name": "ApprovalForAll",
      "type": "event"
    },
    {
      "anonymous": false,
      "inputs": [
        {
          "indexed": false,
          "internalType": "uint256",
          "name": "_fromTokenId",
          "type": "uint256"
        },
        {
          "indexed": false,
          "internalType": "uint256",
          "name": "_toTokenId",
          "type": "uint256"
        }
      ],
      "name": "BatchMetadataUpdate",
      "type": "event"
    },
    {
      "anonymous": false,
      "inputs": [
        {
          "indexed": false,
          "internalType": "uint256",
          "name": "_tokenId",
          "type": "uint256"
        }
      ],
      "name": "MetadataUpdate",
      "type": "event"
    },
    {
      "anonymous": false,
      "inputs": [
        {
          "indexed": true,
          "internalType": "address",
          "name": "previousOwner",
          "type": "address"
        },
        {
          "indexed": true,
          "internalType": "address",
          "name": "newOwner",
          "type": "address"
        }
      ],
      "name": "OwnershipTransferred",
      "type": "event"
    },
    {
      "anonymous": false,
      "inputs": [
        {
          "indexed": true,
          "internalType": "address",
          "name": "from",
          "type": "address"
        },
        {
          "indexed": true,
          "internalType": "address",
          "name": "to",
          "type": "address"
        },
        {
          "indexed": true,
          "internalType": "uint256",
          "name": "tokenId",
          "type": "uint256"
        }
      ],
      "name": "Transfer",
      "type": "event"
    },
    {
      "inputs": [
        {
          "internalType": "address",
          "name": "to",
          "type": "address"
        },
        {
          "internalType": "uint256",
          "name": "tokenId",
          "type": "uint256"
        }
      ],
      "name": "approve",
      "outputs": [],
      "stateMutability": "nonpayable",
      "type": "function"
    },
    {
      "inputs": [
        {
          "internalType": "address",
          "name": "owner",
          "type": "address"
        }
      ],
      "name": "balanceOf",
      "outputs": [
        {
          "internalType": "uint256",
          "name": "",
          "type": "uint256"
        }
      ],
      "stateMutability": "view",
      "type": "function"
    },
    {
      "inputs": [
        {
          "internalType": "uint256",
          "name": "tokenId",
          "type": "uint256"
        }
      ],
      "name": "burn",
      "outputs": [],
      "stateMutability": "nonpayable",
      "type": "function"
    },
    {
      "inputs": [
        {
          "internalType": "uint256",
          "name": "tokenId",
          "type": "uint256"
        }
      ],
      "name": "getApproved",
      "outputs": [
        {
          "internalType": "address",
          "name": "",
          "type": "address"
        }
      ],
      "stateMutability": "view",
      "type": "function"
    },
    {
      "inputs": [
        {
          "internalType": "address",
          "name": "owner",
          "type": "address"
        },
        {
          "internalType": "address",
          "name": "operator",
          "type": "address"
        }
      ],
      "name": "isApprovedForAll",
      "outputs": [
        {
          "internalType": "bool",
          "name": "",
          "type": "bool"
        }
      ],
      "stateMutability": "view",
      "type": "function"
    },
    {
      "inputs": [],
      "name": "marketplace",
      "outputs": [
        {
          "internalType": "contract NftMarketplaceInterface",
          "name": "",
          "type": "address"
        }
      ],
      "stateMutability": "view",
      "type": "function"
    },
    {
      "inputs": [],
      "name": "name",
      "outputs": [
        {
          "internalType": "string",
          "name": "",
          "type": "string"
        }
      ],
      "stateMutability": "view",
      "type": "function"
    },
    {
      "inputs": [],
      "name": "owner",
      "outputs": [
        {
          "internalType": "address",
          "name": "",
          "type": "address"
        }
      ],
      "stateMutability": "view",
      "type": "function"
    },
    {
      "inputs": [
        {
          "internalType": "uint256",
          "name": "tokenId",
          "type": "uint256"
        }
      ],
      "name": "ownerOf",
      "outputs": [
        {
          "internalType": "address",
          "name": "",
          "type": "address"
        }
      ],
      "stateMutability": "view",
      "type": "function"
    },
    {
      "inputs": [],
      "name": "renounceOwnership",
      "outputs": [],
      "stateMutability": "nonpayable",
      "type": "function"
    },
    {
      "inputs": [
        {
          "internalType": "address",
          "name": "_to",
          "type": "address"
        },
        {
          "internalType": "string",
          "name": "_uri",
          "type": "string"
        }
      ],
      "name": "safeMint",
      "outputs": [],
      "stateMutability": "nonpayable",
      "type": "function"
    },
    {
      "inputs": [
        {
          "internalType": "address",
          "name": "from",
          "type": "address"
        },
        {
          "internalType": "address",
          "name": "to",
          "type": "address"
        },
        {
          "internalType": "uint256",
          "name": "tokenId",
          "type": "uint256"
        }
      ],
      "name": "safeTransferFrom",
      "outputs": [],
      "stateMutability": "nonpayable",
      "type": "function"
    },
    {
      "inputs": [
        {
          "internalType": "address",
          "name": "from",
          "type": "address"
        },
        {
          "internalType": "address",
          "name": "to",
          "type": "address"
        },
        {
          "internalType": "uint256",
          "name": "tokenId",
          "type": "uint256"
        },
        {
          "internalType": "bytes",
          "name": "data",
          "type": "bytes"
        }
      ],
      "name": "safeTransferFrom",
      "outputs": [],
      "stateMutability": "nonpayable",
      "type": "function"
    },
    {
      "inputs": [
        {
          "internalType": "address",
          "name": "operator",
          "type": "address"
        },
        {
          "internalType": "bool",
          "name": "approved",
          "type": "bool"
        }
      ],
      "name": "setApprovalForAll",
      "outputs": [],
      "stateMutability": "nonpayable",
      "type": "function"
    },
    {
      "inputs": [
        {
          "internalType": "bytes4",
          "name": "interfaceId",
          "type": "bytes4"
        }
      ],
      "name": "supportsInterface",
      "outputs": [
        {
          "internalType": "bool",
          "name": "",
          "type": "bool"
        }
      ],
      "stateMutability": "view",
      "type": "function"
    },
    {
      "inputs": [],
      "name": "symbol",
      "outputs": [
        {
          "internalType": "string",
          "name": "",
          "type": "string"
        }
      ],
      "stateMutability": "view",
      "type": "function"
    },
    {
      "inputs": [
        {
          "internalType": "uint256",
          "name": "index",
          "type": "uint256"
        }
      ],
      "name": "tokenByIndex",
      "outputs": [
        {
          "internalType": "uint256",
          "name": "",
          "type": "uint256"
        }
      ],
      "stateMutability": "view",
      "type": "function"
    },
    {
      "inputs": [
        {
          "internalType": "address",
          "name": "owner",
          "type": "address"
        },
        {
          "internalType": "uint256",
          "name": "index",
          "type": "uint256"
        }
      ],
      "name": "tokenOfOwnerByIndex",
      "outputs": [
        {
          "internalType": "uint256",
          "name": "",
          "type": "uint256"
        }
      ],
      "stateMutability": "view",
      "type": "function"
    },
    {
      "inputs": [
        {
          "internalType": "uint256",
          "name": "tokenId",
          "type": "uint256"
        }
      ],
      "name": "tokenURI",
      "outputs": [
        {
          "internalType": "string",
          "name": "",
          "type": "string"
        }
      ],
      "stateMutability": "view",
      "type": "function"
    },
    {
      "inputs": [],
      "name": "totalSupply",
      "outputs": [
        {
          "internalType": "uint256",
          "name": "",
          "type": "uint256"
        }
      ],
      "stateMutability": "view",
      "type": "function"
    },
    {
      "inputs": [
        {
          "internalType": "address",
          "name": "from",
          "type": "address"
        },
        {
          "internalType": "address",
          "name": "to",
          "type": "address"
        },
        {
          "internalType": "uint256",
          "name": "tokenId",
          "type": "uint256"
        }
      ],
      "name": "transferFrom",
      "outputs": [],
      "stateMutability": "nonpayable",
      "type": "function"
    },
    {
      "inputs": [
        {
          "internalType": "address",
          "name": "newOwner",
          "type": "address"
        }
      ],
      "name": "transferOwnership",
      "outputs": [],
      "stateMutability": "nonpayable",
      "type": "function"
    }
  ],
  "bytecode": "0x60806040523480156200001157600080fd5b50604051620022d0380380620022d083398101604081905262000034916200025c565b8251839083906200004d906000906020850190620000ff565b50805162000063906001906020840190620000ff565b505050620000806200007a620000a960201b60201c565b620000ad565b600d80546001600160a01b0319166001600160a01b0392909216919091179055506200033c9050565b3390565b600b80546001600160a01b038381166001600160a01b0319831681179093556040519116919082907f8be0079c531659141344cd1fd0a4f28419497f9722a3daafe3b4186f6b6457e090600090a35050565b8280546200010d90620002e9565b90600052602060002090601f0160209004810192826200013157600085556200017c565b82601f106200014c57805160ff19168380011785556200017c565b828001600101855582156200017c579182015b828111156200017c5782518255916020019190600101906200015f565b506200018a9291506200018e565b5090565b5b808211156200018a57600081556001016200018f565b600082601f830112620001b757600080fd5b81516001600160401b0380821115620001d457620001d462000326565b604051601f8301601f19908116603f01168101908282118183101715620001ff57620001ff62000326565b816040528381526020925086838588010111156200021c57600080fd5b600091505b8382101562000240578582018301518183018401529082019062000221565b83821115620002525760008385830101525b9695505050505050565b6000806000606084860312156200027257600080fd5b83516001600160401b03808211156200028a57600080fd5b6200029887838801620001a5565b94506020860151915080821115620002af57600080fd5b50620002be86828701620001a5565b604086015190935090506001600160a01b0381168114620002de57600080fd5b809150509250925092565b600181811c90821680620002fe57607f821691505b602082108114156200032057634e487b7160e01b600052602260045260246000fd5b50919050565b634e487b7160e01b600052604160045260246000fd5b611f84806200034c6000396000f3fe608060405234801561001057600080fd5b50600436106101425760003560e01c806370a08231116100b8578063abc8c7af1161007c578063abc8c7af1461028f578063b88d4fde146102a2578063c87b56dd146102b5578063d204c45e146102c8578063e985e9c5146102db578063f2fde38b1461031757600080fd5b806370a0823114610248578063715018a61461025b5780638da5cb5b1461026357806395d89b4114610274578063a22cb4651461027c57600080fd5b806323b872dd1161010a57806323b872dd146101d65780632f745c59146101e957806342842e0e146101fc57806342966c681461020f5780634f6ccce7146102225780636352211e1461023557600080fd5b806301ffc9a71461014757806306fdde031461016f578063081812fc14610184578063095ea7b3146101af57806318160ddd146101c4575b600080fd5b61015a610155366004611c6f565b61032a565b60405190151581526020015b60405180910390f35b61017761033b565b6040516101669190611d73565b610197610192366004611ca9565b6103cd565b6040516001600160a01b039091168152602001610166565b6101c26101bd366004611c45565b6103f4565b005b6008545b604051908152602001610166565b6101c26101e4366004611aef565b61050f565b6101c86101f7366004611c45565b610541565b6101c261020a366004611aef565b6105d7565b6101c261021d366004611ca9565b6105f2565b6101c8610230366004611ca9565b610623565b610197610243366004611ca9565b6106b6565b6101c8610256366004611aa1565b610716565b6101c261079c565b600b546001600160a01b0316610197565b6101776107b0565b6101c261028a366004611ba7565b6107bf565b600d54610197906001600160a01b031681565b6101c26102b0366004611b2b565b6107ce565b6101776102c3366004611ca9565b610806565b6101c26102d6366004611be3565b610811565b61015a6102e9366004611abc565b6001600160a01b03918216600090815260056020908152604080832093909416825291909152205460ff1690565b6101c2610325366004611aa1565b610848565b6000610335826108be565b92915050565b60606000805461034a90611ebb565b80601f016020809104026020016040519081016040528092919081815260200182805461037690611ebb565b80156103c35780601f10610398576101008083540402835291602001916103c3565b820191906000526020600020905b8154815290600101906020018083116103a657829003601f168201915b5050505050905090565b60006103d8826108e3565b506000908152600460205260409020546001600160a01b031690565b60006103ff826106b6565b9050806001600160a01b0316836001600160a01b031614156104725760405162461bcd60e51b815260206004820152602160248201527f4552433732313a20617070726f76616c20746f2063757272656e74206f776e656044820152603960f91b60648201526084015b60405180910390fd5b336001600160a01b038216148061048e575061048e81336102e9565b6105005760405162461bcd60e51b815260206004820152603d60248201527f4552433732313a20617070726f76652063616c6c6572206973206e6f7420746f60448201527f6b656e206f776e6572206f7220617070726f76656420666f7220616c6c0000006064820152608401610469565b61050a8383610942565b505050565b61051a335b826109b0565b6105365760405162461bcd60e51b815260040161046990611d86565b61050a838383610a2f565b600061054c83610716565b82106105ae5760405162461bcd60e51b815260206004820152602b60248201527f455243373231456e756d657261626c653a206f776e657220696e646578206f7560448201526a74206f6620626f756e647360a81b6064820152608401610469565b506001600160a01b03919091166000908152600660209081526040808320938352929052205490565b61050a838383604051806020016040528060008152506107ce565b6105fb33610514565b6106175760405162461bcd60e51b815260040161046990611d86565b61062081610ba8565b50565b600061062e60085490565b82106106915760405162461bcd60e51b815260206004820152602c60248201527f455243373231456e756d657261626c653a20676c6f62616c20696e646578206f60448201526b7574206f6620626f756e647360a01b6064820152608401610469565b600882815481106106a4576106a4611f0c565b90600052602060002001549050919050565b6000818152600260205260408120546001600160a01b0316806103355760405162461bcd60e51b8152602060048201526018602482015277115490cdcc8c4e881a5b9d985b1a59081d1bdad95b88125160421b6044820152606401610469565b60006001600160a01b0382166107805760405162461bcd60e51b815260206004820152602960248201527f4552433732313a2061646472657373207a65726f206973206e6f7420612076616044820152683634b21037bbb732b960b91b6064820152608401610469565b506001600160a01b031660009081526003602052604090205490565b6107a4610bb1565b6107ae6000610c0b565b565b60606001805461034a90611ebb565b6107ca338383610c5d565b5050565b6107d833836109b0565b6107f45760405162461bcd60e51b815260040161046990611d86565b61080084848484610d2c565b50505050565b606061033582610d5f565b610819610bb1565b6000610824600c5490565b9050610834600c80546001019055565b61083e8382610e68565b61050a8183610e82565b610850610bb1565b6001600160a01b0381166108b55760405162461bcd60e51b815260206004820152602660248201527f4f776e61626c653a206e6577206f776e657220697320746865207a65726f206160448201526564647265737360d01b6064820152608401610469565b61062081610c0b565b60006001600160e01b03198216632483248360e11b1480610335575061033582610f54565b6000818152600260205260409020546001600160a01b03166106205760405162461bcd60e51b8152602060048201526018602482015277115490cdcc8c4e881a5b9d985b1a59081d1bdad95b88125160421b6044820152606401610469565b600081815260046020526040902080546001600160a01b0319166001600160a01b0384169081179091558190610977826106b6565b6001600160a01b03167f8c5be1e5ebec7d5bd14f71427d1e84f3dd0314c0f7b2291e5b200ac8c7c3b92560405160405180910390a45050565b6000806109bc836106b6565b9050806001600160a01b0316846001600160a01b03161480610a0357506001600160a01b0380821660009081526005602090815260408083209388168352929052205460ff165b80610a275750836001600160a01b0316610a1c846103cd565b6001600160a01b0316145b949350505050565b826001600160a01b0316610a42826106b6565b6001600160a01b031614610a685760405162461bcd60e51b815260040161046990611e25565b6001600160a01b038216610aca5760405162461bcd60e51b8152602060048201526024808201527f4552433732313a207472616e7366657220746f20746865207a65726f206164646044820152637265737360e01b6064820152608401610469565b610ad78383836001610f79565b826001600160a01b0316610aea826106b6565b6001600160a01b031614610b105760405162461bcd60e51b815260040161046990611e25565b600081815260046020908152604080832080546001600160a01b03199081169091556001600160a01b0387811680865260038552838620805460001901905590871680865283862080546001019055868652600290945282852080549092168417909155905184937fddf252ad1be2c89b69c2b068fc378daa952ba7f163c4a11628f55a4df523b3ef91a461050a8383836001610f85565b61062081611073565b600b546001600160a01b031633146107ae5760405162461bcd60e51b815260206004820181905260248201527f4f776e61626c653a2063616c6c6572206973206e6f7420746865206f776e65726044820152606401610469565b600b80546001600160a01b038381166001600160a01b0319831681179093556040519116919082907f8be0079c531659141344cd1fd0a4f28419497f9722a3daafe3b4186f6b6457e090600090a35050565b816001600160a01b0316836001600160a01b03161415610cbf5760405162461bcd60e51b815260206004820152601960248201527f4552433732313a20617070726f766520746f2063616c6c6572000000000000006044820152606401610469565b6001600160a01b03838116600081815260056020908152604080832094871680845294825291829020805460ff191686151590811790915591519182527f17307eab39ab6107e8899845ad3d59bd9653f200f220920489ca2b5937696c31910160405180910390a3505050565b610d37848484610a2f565b610d43848484846110b3565b6108005760405162461bcd60e51b815260040161046990611dd3565b6060610d6a826108e3565b6000828152600a602052604081208054610d8390611ebb565b80601f0160208091040260200160405190810160405280929190818152602001828054610daf90611ebb565b8015610dfc5780601f10610dd157610100808354040283529160200191610dfc565b820191906000526020600020905b815481529060010190602001808311610ddf57829003601f168201915b505050505090506000610e1a60408051602081019091526000815290565b9050805160001415610e2d575092915050565b815115610e5f578082604051602001610e47929190611d07565b60405160208183030381529060405292505050919050565b610a27846111c0565b6107ca828260405180602001604052806000815250611234565b6000828152600260205260409020546001600160a01b0316610efd5760405162461bcd60e51b815260206004820152602e60248201527f45524337323155524953746f726167653a2055524920736574206f66206e6f6e60448201526d32bc34b9ba32b73a103a37b5b2b760911b6064820152608401610469565b6000828152600a602090815260409091208251610f1c92840190611940565b506040518281527ff8e1a15aba9398e019f0b49df1a4fde98ee17ae345cb5f6b5e2c27f5033e8ce79060200160405180910390a15050565b60006001600160e01b0319821663780e9d6360e01b1480610335575061033582611267565b610800848484846112b7565b600d54604051617df360e41b8152306004820152602481018490526001600160a01b03909116906207df309060440160206040518083038186803b158015610fcc57600080fd5b505afa158015610fe0573d6000803e3d6000fd5b505050506040513d601f19601f820116820180604052508101906110049190611cc2565b1561106e57600d5460405163596ef70360e11b8152306004820152602481018490526001600160a01b039091169063b2ddee0690604401600060405180830381600087803b15801561105557600080fd5b505af1158015611069573d6000803e3d6000fd5b505050505b610800565b61107c816113eb565b6000818152600a60205260409020805461109590611ebb565b159050610620576000818152600a60205260408120610620916119c4565b60006001600160a01b0384163b156111b557604051630a85bd0160e11b81526001600160a01b0385169063150b7a02906110f7903390899088908890600401611d36565b602060405180830381600087803b15801561111157600080fd5b505af1925050508015611141575060408051601f3d908101601f1916820190925261113e91810190611c8c565b60015b61119b573d80801561116f576040519150601f19603f3d011682016040523d82523d6000602084013e611174565b606091505b5080516111935760405162461bcd60e51b815260040161046990611dd3565b805181602001fd5b6001600160e01b031916630a85bd0160e11b149050610a27565b506001949350505050565b60606111cb826108e3565b60006111e260408051602081019091526000815290565b90506000815111611202576040518060200160405280600081525061122d565b8061120c84611498565b60405160200161121d929190611d07565b6040516020818303038152906040525b9392505050565b61123e8383611535565b61124b60008484846110b3565b61050a5760405162461bcd60e51b815260040161046990611dd3565b60006001600160e01b031982166380ac58cd60e01b148061129857506001600160e01b03198216635b5e139f60e01b145b8061033557506301ffc9a760e01b6001600160e01b0319831614610335565b60018111156113265760405162461bcd60e51b815260206004820152603560248201527f455243373231456e756d657261626c653a20636f6e7365637574697665207472604482015274185b9cd9995c9cc81b9bdd081cdd5c1c1bdc9d1959605a1b6064820152608401610469565b816001600160a01b0385166113825761137d81600880546000838152600960205260408120829055600182018355919091527ff3f7a9fe364faab93b216da50a3214154f22a0a2b415b23a84c8169e8b636ee30155565b6113a5565b836001600160a01b0316856001600160a01b0316146113a5576113a585826116d8565b6001600160a01b0384166113c1576113bc81611775565b6113e4565b846001600160a01b0316846001600160a01b0316146113e4576113e48482611824565b5050505050565b60006113f6826106b6565b9050611406816000846001610f79565b61140f826106b6565b600083815260046020908152604080832080546001600160a01b03199081169091556001600160a01b0385168085526003845282852080546000190190558785526002909352818420805490911690555192935084927fddf252ad1be2c89b69c2b068fc378daa952ba7f163c4a11628f55a4df523b3ef908390a46107ca816000846001610f85565b606060006114a583611868565b600101905060008167ffffffffffffffff8111156114c5576114c5611f22565b6040519080825280601f01601f1916602001820160405280156114ef576020820181803683370190505b5090508181016020015b600019016f181899199a1a9b1b9c1cb0b131b232b360811b600a86061a8153600a85049450846115285761152d565b6114f9565b509392505050565b6001600160a01b03821661158b5760405162461bcd60e51b815260206004820181905260248201527f4552433732313a206d696e7420746f20746865207a65726f20616464726573736044820152606401610469565b6000818152600260205260409020546001600160a01b0316156115f05760405162461bcd60e51b815260206004820152601c60248201527f4552433732313a20746f6b656e20616c7265616479206d696e746564000000006044820152606401610469565b6115fe600083836001610f79565b6000818152600260205260409020546001600160a01b0316156116635760405162461bcd60e51b815260206004820152601c60248201527f4552433732313a20746f6b656e20616c7265616479206d696e746564000000006044820152606401610469565b6001600160a01b038216600081815260036020908152604080832080546001019055848352600290915280822080546001600160a01b0319168417905551839291907fddf252ad1be2c89b69c2b068fc378daa952ba7f163c4a11628f55a4df523b3ef908290a46107ca600083836001610f85565b600060016116e584610716565b6116ef9190611e6a565b600083815260076020526040902054909150808214611742576001600160a01b03841660009081526006602090815260408083208584528252808320548484528184208190558352600790915290208190555b5060009182526007602090815260408084208490556001600160a01b039094168352600681528383209183525290812055565b60085460009061178790600190611e6a565b600083815260096020526040812054600880549394509092849081106117af576117af611f0c565b9060005260206000200154905080600883815481106117d0576117d0611f0c565b600091825260208083209091019290925582815260099091526040808220849055858252812055600880548061180857611808611ef6565b6001900381819060005260206000200160009055905550505050565b600061182f83610716565b6001600160a01b039093166000908152600660209081526040808320868452825280832085905593825260079052919091209190915550565b60008072184f03e93ff9f4daa797ed6e38ed64bf6a1f0160401b83106118a75772184f03e93ff9f4daa797ed6e38ed64bf6a1f0160401b830492506040015b6d04ee2d6d415b85acef810000000083106118d3576d04ee2d6d415b85acef8100000000830492506020015b662386f26fc1000083106118f157662386f26fc10000830492506010015b6305f5e1008310611909576305f5e100830492506008015b612710831061191d57612710830492506004015b6064831061192f576064830492506002015b600a83106103355760010192915050565b82805461194c90611ebb565b90600052602060002090601f01602090048101928261196e57600085556119b4565b82601f1061198757805160ff19168380011785556119b4565b828001600101855582156119b4579182015b828111156119b4578251825591602001919060010190611999565b506119c09291506119fa565b5090565b5080546119d090611ebb565b6000825580601f106119e0575050565b601f01602090049060005260206000209081019061062091905b5b808211156119c057600081556001016119fb565b600067ffffffffffffffff80841115611a2a57611a2a611f22565b604051601f8501601f19908116603f01168101908282118183101715611a5257611a52611f22565b81604052809350858152868686011115611a6b57600080fd5b858560208301376000602087830101525050509392505050565b80356001600160a01b0381168114611a9c57600080fd5b919050565b600060208284031215611ab357600080fd5b61122d82611a85565b60008060408385031215611acf57600080fd5b611ad883611a85565b9150611ae660208401611a85565b90509250929050565b600080600060608486031215611b0457600080fd5b611b0d84611a85565b9250611b1b60208501611a85565b9150604084013590509250925092565b60008060008060808587031215611b4157600080fd5b611b4a85611a85565b9350611b5860208601611a85565b925060408501359150606085013567ffffffffffffffff811115611b7b57600080fd5b8501601f81018713611b8c57600080fd5b611b9b87823560208401611a0f565b91505092959194509250565b60008060408385031215611bba57600080fd5b611bc383611a85565b915060208301358015158114611bd857600080fd5b809150509250929050565b60008060408385031215611bf657600080fd5b611bff83611a85565b9150602083013567ffffffffffffffff811115611c1b57600080fd5b8301601f81018513611c2c57600080fd5b611c3b85823560208401611a0f565b9150509250929050565b60008060408385031215611c5857600080fd5b611c6183611a85565b946020939093013593505050565b600060208284031215611c8157600080fd5b813561122d81611f38565b600060208284031215611c9e57600080fd5b815161122d81611f38565b600060208284031215611cbb57600080fd5b5035919050565b600060208284031215611cd457600080fd5b5051919050565b60008151808452611cf3816020860160208601611e8f565b601f01601f19169290920160200192915050565b60008351611d19818460208801611e8f565b835190830190611d2d818360208801611e8f565b01949350505050565b6001600160a01b0385811682528416602082015260408101839052608060608201819052600090611d6990830184611cdb565b9695505050505050565b60208152600061122d6020830184611cdb565b6020808252602d908201527f4552433732313a2063616c6c6572206973206e6f7420746f6b656e206f776e6560408201526c1c881bdc88185c1c1c9bdd9959609a1b606082015260800190565b60208082526032908201527f4552433732313a207472616e7366657220746f206e6f6e20455243373231526560408201527131b2b4bb32b91034b6b83632b6b2b73a32b960711b606082015260800190565b60208082526025908201527f4552433732313a207472616e736665722066726f6d20696e636f72726563742060408201526437bbb732b960d91b606082015260800190565b600082821015611e8a57634e487b7160e01b600052601160045260246000fd5b500390565b60005b83811015611eaa578181015183820152602001611e92565b838111156108005750506000910152565b600181811c90821680611ecf57607f821691505b60208210811415611ef057634e487b7160e01b600052602260045260246000fd5b50919050565b634e487b7160e01b600052603160045260246000fd5b634e487b7160e01b600052603260045260246000fd5b634e487b7160e01b600052604160045260246000fd5b6001600160e01b03198116811461062057600080fdfea264697066735822122013bafb6c3aeed072730c249ad2e3dd399b99e3a424de95e54ad694219f8a615a64736f6c63430008070033",
  "linkReferences": {},
  "deployedLinkReferences": {}
}