{
  "_format": "hh-sol-artifact-1",
  "contractName": "NftMarketplaceV2",
  "sourceName": "contracts/NftMarketplaceV2.sol",
  "abi": [
    {
      "anonymous": false,
      "inputs": [
        {
          "indexed": true,
          "internalType": "address",
          "name": "deployer",
          "type": "address"
        },
        {
          "indexed": true,
          "internalType": "address",
          "name": "nftAddress",
          "type": "address"
        }
      ],
      "name": "CollectionAdded",
      "type": "event"
    },
    {
      "anonymous": false,
      "inputs": [
        {
          "indexed": true,
          "internalType": "address",
          "name": "buyer",
          "type": "address"
        },
        {
          "indexed": true,
          "internalType": "address",
          "name": "nftAddress",
          "type": "address"
        },
        {
          "indexed": true,
          "internalType": "uint256",
          "name": "tokenId",
          "type": "uint256"
        },
        {
          "indexed": false,
          "internalType": "uint256",
          "name": "price",
          "type": "uint256"
        }
      ],
      "name": "ItemBought",
      "type": "event"
    },
    {
      "anonymous": false,
      "inputs": [
        {
          "indexed": true,
          "internalType": "address",
          "name": "seller",
          "type": "address"
        },
        {
          "indexed": true,
          "internalType": "address",
          "name": "nftAddress",
          "type": "address"
        },
        {
          "indexed": true,
          "internalType": "uint256",
          "name": "tokenId",
          "type": "uint256"
        }
      ],
      "name": "ItemCanceled",
      "type": "event"
    },
    {
      "anonymous": false,
      "inputs": [
        {
          "indexed": true,
          "internalType": "address",
          "name": "seller",
          "type": "address"
        },
        {
          "indexed": true,
          "internalType": "address",
          "name": "nftAddress",
          "type": "address"
        },
        {
          "indexed": true,
          "internalType": "uint256",
          "name": "tokenId",
          "type": "uint256"
        },
        {
          "indexed": false,
          "internalType": "uint256",
          "name": "price",
          "type": "uint256"
        }
      ],
      "name": "ItemListed",
      "type": "event"
    },
    {
      "inputs": [
        {
          "internalType": "address",
          "name": "_nftAddress",
          "type": "address"
        }
      ],
      "name": "addCollection",
      "outputs": [],
      "stateMutability": "nonpayable",
      "type": "function"
    },
    {
      "inputs": [
        {
          "internalType": "address",
          "name": "_nftAddress",
          "type": "address"
        },
        {
          "internalType": "uint256",
          "name": "_tokenId",
          "type": "uint256"
        }
      ],
      "name": "buyItem",
      "outputs": [],
      "stateMutability": "payable",
      "type": "function"
    },
    {
      "inputs": [
        {
          "internalType": "address",
          "name": "_nftAddress",
          "type": "address"
        },
        {
          "internalType": "uint256",
          "name": "_tokenId",
          "type": "uint256"
        }
      ],
      "name": "cancelListing",
      "outputs": [],
      "stateMutability": "nonpayable",
      "type": "function"
    },
    {
      "inputs": [
        {
          "internalType": "address",
          "name": "_nftAddress",
          "type": "address"
        },
        {
          "internalType": "uint256",
          "name": "_tokenId",
          "type": "uint256"
        },
        {
          "internalType": "uint256",
          "name": "_price",
          "type": "uint256"
        }
      ],
      "name": "listItem",
      "outputs": [],
      "stateMutability": "nonpayable",
      "type": "function"
    },
    {
      "inputs": [
        {
          "internalType": "address",
          "name": "",
          "type": "address"
        },
        {
          "internalType": "uint256",
          "name": "",
          "type": "uint256"
        }
      ],
      "name": "listings",
      "outputs": [
        {
          "internalType": "uint256",
          "name": "",
          "type": "uint256"
        }
      ],
      "stateMutability": "view",
      "type": "function"
    },
    {
      "inputs": [
        {
          "internalType": "address",
          "name": "",
          "type": "address"
        },
        {
          "internalType": "uint256",
          "name": "",
          "type": "uint256"
        }
      ],
      "name": "nfts",
      "outputs": [
        {
          "internalType": "address",
          "name": "",
          "type": "address"
        }
      ],
      "stateMutability": "view",
      "type": "function"
    },
    {
      "inputs": [],
      "name": "withdrawFunds",
      "outputs": [],
      "stateMutability": "nonpayable",
      "type": "function"
    }
  ],
  "bytecode": "0x608060405234801561001057600080fd5b506001600055610d4d806100256000396000f3fe60806040526004361061006f5760003560e01c806389bfd38f1161004e57806389bfd38f1461010e5780639f37092a1461012e578063a174e77a14610141578063b2ddee061461016157600080fd5b806207df301461007457806324600fc3146100bf57806343af356b146100d6575b600080fd5b34801561008057600080fd5b506100ac61008f366004610c42565b600160209081526000928352604080842090915290825290205481565b6040519081526020015b60405180910390f35b3480156100cb57600080fd5b506100d4610181565b005b3480156100e257600080fd5b506100f66100f1366004610c42565b610276565b6040516001600160a01b0390911681526020016100b6565b34801561011a57600080fd5b506100d4610129366004610c6e565b6102ae565b6100d461013c366004610c42565b61057f565b34801561014d57600080fd5b506100d461015c366004610c01565b61083d565b34801561016d57600080fd5b506100d461017c366004610c42565b610a41565b336000908152600260205260409020546101da5760405162461bcd60e51b8152602060048201526015602482015274273790333ab73239903a37903bb4ba34323930bb9760591b60448201526064015b60405180910390fd5b336000818152600260205260408082208290555190919082908181818181875af1925050503d806000811461022b576040519150601f19603f3d011682016040523d82523d6000602084013e610230565b606091505b50509050806102735760405162461bcd60e51b815260206004820152600f60248201526e151c985b9cd9995c8819985a5b1959608a1b60448201526064016101d1565b50565b6003602052816000526040600020818154811061029257600080fd5b6000918252602090912001546001600160a01b03169150829050565b6001600160a01b03831660009081526001602090815260408083208584529091529020548390839033901561031c5760405162461bcd60e51b815260206004820152601460248201527329b437bab6323713ba103132903634b9ba32b21760611b60448201526064016101d1565b6040516331a9108f60e11b81526004810186905286908690339083906000906001600160a01b03831690636352211e9060240160206040518083038186803b15801561036757600080fd5b505afa15801561037b573d6000803e3d6000fd5b505050506040513d601f19601f8201168201806040525081019061039f9190610c25565b9050806001600160a01b0316836001600160a01b0316146104025760405162461bcd60e51b815260206004820152601d60248201527f53686f756c64206265206f776e6572206f662074686520746f6b656e2e00000060448201526064016101d1565b600089116104435760405162461bcd60e51b815260206004820152600e60248201526d283934b1b2903737ba1039b2ba1760911b60448201526064016101d1565b60405163020604bf60e21b8152600481018b90528b9030906001600160a01b0383169063081812fc9060240160206040518083038186803b15801561048757600080fd5b505afa15801561049b573d6000803e3d6000fd5b505050506040513d601f19601f820116820180604052508101906104bf9190610c25565b6001600160a01b0316146105155760405162461bcd60e51b815260206004820152601a60248201527f417070726f7665206d61726b6574706c6163652066697273742e00000000000060448201526064016101d1565b6001600160a01b038c1660008181526001602090815260408083208f84528252918290208d905590518c81528d929133917fd547e933094f12a9159076970143ebe73234e64480317844b0dcb36117116de4910160405180910390a4505050505050505050505050565b6001600160a01b0382166000908152600160209081526040808320848452909152902054829082906105e75760405162461bcd60e51b815260206004820152601160248201527029b437bab632103132903634b9ba32b21760791b60448201526064016101d1565b6002600054141561063a5760405162461bcd60e51b815260206004820152601f60248201527f5265656e7472616e637947756172643a207265656e7472616e742063616c6c0060448201526064016101d1565b600260009081556001600160a01b038516815260016020908152604080832086845290915290205434146106a25760405162461bcd60e51b815260206004820152600f60248201526e283934b1b29036b4b9b6b0ba31b41760891b60448201526064016101d1565b6040516331a9108f60e11b81526004810184905284906000906001600160a01b03831690636352211e9060240160206040518083038186803b1580156106e757600080fd5b505afa1580156106fb573d6000803e3d6000fd5b505050506040513d601f19601f8201168201806040525081019061071f9190610c25565b6001600160a01b03811660009081526002602052604081208054929350349290919061074c908490610ca3565b90915550506001600160a01b0386811660008181526001602090815260408083208a84529091528082209190915551632142170760e11b8152918316600483015233602483015260448201879052906342842e0e90606401600060405180830381600087803b1580156107be57600080fd5b505af11580156107d2573d6000803e3d6000fd5b505050506001600160a01b038616600081815260016020908152604080832089845282529182902054915191825287929133917f263223b1dd81e51054a4e6f791d45a4a1ddb4aadcd93a2dfd892615c3fdac187910160405180910390a45050600160005550505050565b806001600160a01b0316638da5cb5b6040518163ffffffff1660e01b8152600401602060405180830381600087803b15801561087857600080fd5b505af115801561088c573d6000803e3d6000fd5b505050506040513d601f19601f820116820180604052508101906108b09190610c25565b6001600160a01b0316336001600160a01b03161461091a5760405162461bcd60e51b815260206004820152602160248201527f4f6e6c7920636f6c6c656374696f6e206f776e65722063616e206164642069746044820152601760f91b60648201526084016101d1565b60005b336000908152600360205260409020548110156109d65733600090815260036020526040902080546001600160a01b03841691908390811061096157610961610cec565b6000918252602090912001546001600160a01b031614156109c45760405162461bcd60e51b815260206004820152601960248201527f436f6c6c656374696f6e20616c7265616479206578697374730000000000000060448201526064016101d1565b806109ce81610cbb565b91505061091d565b50336000818152600360209081526040808320805460018101825590845291832090910180546001600160a01b0319166001600160a01b03861690811790915590519092917fde026c5319b7c35f108a6ccfc922edc8008522079b610aee3c676bb7b7b7fb3591a350565b6001600160a01b038216600090815260016020908152604080832084845290915290205482908290610aa95760405162461bcd60e51b815260206004820152601160248201527029b437bab632103132903634b9ba32b21760791b60448201526064016101d1565b6040516331a9108f60e11b81526004810184905284906000906001600160a01b03831690636352211e9060240160206040518083038186803b158015610aee57600080fd5b505afa158015610b02573d6000803e3d6000fd5b505050506040513d601f19601f82011682018060405250810190610b269190610c25565b9050336001600160a01b0382161480610b475750336001600160a01b038716145b610ba85760405162461bcd60e51b815260206004820152602c60248201527f4f6e6c7920746f6b656e206f776e6572206f72204e465420636f6e747261637460448201526b1031b0b71031b0b731b2b61760a11b60648201526084016101d1565b6001600160a01b03861660008181526001602090815260408083208984529091528082208290555187929133917f9ba1a3cb55ce8d63d072a886f94d2a744f50cddf82128e897d0661f5ec6231589190a4505050505050565b600060208284031215610c1357600080fd5b8135610c1e81610d02565b9392505050565b600060208284031215610c3757600080fd5b8151610c1e81610d02565b60008060408385031215610c5557600080fd5b8235610c6081610d02565b946020939093013593505050565b600080600060608486031215610c8357600080fd5b8335610c8e81610d02565b95602085013595506040909401359392505050565b60008219821115610cb657610cb6610cd6565b500190565b6000600019821415610ccf57610ccf610cd6565b5060010190565b634e487b7160e01b600052601160045260246000fd5b634e487b7160e01b600052603260045260246000fd5b6001600160a01b038116811461027357600080fdfea26469706673582212203101fdefe4fff81a24631fe35b8680440ccc97de10ba4e80510038f49ed3920c64736f6c63430008070033",
  "linkReferences": {},
  "deployedLinkReferences": {}
}