{
  "_format": "hh-sol-artifact-1",
  "contractName": "NftMarketplaceV2",
  "sourceName": "contracts/NftMarketplaceV2.sol",
  "abi": [
    {
      "anonymous": false,
      "inputs": [
        {
          "indexed": true,
          "internalType": "address",
          "name": "deployer",
          "type": "address"
        },
        {
          "indexed": true,
          "internalType": "address",
          "name": "nftAddress",
          "type": "address"
        }
      ],
      "name": "CollectionAdded",
      "type": "event"
    },
    {
      "anonymous": false,
      "inputs": [
        {
          "indexed": true,
          "internalType": "address",
          "name": "buyer",
          "type": "address"
        },
        {
          "indexed": true,
          "internalType": "address",
          "name": "nftAddress",
          "type": "address"
        },
        {
          "indexed": true,
          "internalType": "uint256",
          "name": "tokenId",
          "type": "uint256"
        },
        {
          "indexed": false,
          "internalType": "uint256",
          "name": "price",
          "type": "uint256"
        }
      ],
      "name": "ItemBought",
      "type": "event"
    },
    {
      "anonymous": false,
      "inputs": [
        {
          "indexed": true,
          "internalType": "address",
          "name": "seller",
          "type": "address"
        },
        {
          "indexed": true,
          "internalType": "address",
          "name": "nftAddress",
          "type": "address"
        },
        {
          "indexed": true,
          "internalType": "uint256",
          "name": "tokenId",
          "type": "uint256"
        }
      ],
      "name": "ItemCanceled",
      "type": "event"
    },
    {
      "anonymous": false,
      "inputs": [
        {
          "indexed": true,
          "internalType": "address",
          "name": "seller",
          "type": "address"
        },
        {
          "indexed": true,
          "internalType": "address",
          "name": "nftAddress",
          "type": "address"
        },
        {
          "indexed": true,
          "internalType": "uint256",
          "name": "tokenId",
          "type": "uint256"
        },
        {
          "indexed": false,
          "internalType": "uint256",
          "name": "price",
          "type": "uint256"
        }
      ],
      "name": "ItemListed",
      "type": "event"
    },
    {
      "anonymous": false,
      "inputs": [
        {
          "indexed": true,
          "internalType": "address",
          "name": "previousOwner",
          "type": "address"
        },
        {
          "indexed": true,
          "internalType": "address",
          "name": "newOwner",
          "type": "address"
        }
      ],
      "name": "OwnershipTransferred",
      "type": "event"
    },
    {
      "inputs": [
        {
          "internalType": "address",
          "name": "_nftAddress",
          "type": "address"
        }
      ],
      "name": "addCollection",
      "outputs": [],
      "stateMutability": "nonpayable",
      "type": "function"
    },
    {
      "inputs": [
        {
          "internalType": "address",
          "name": "_nftAddress",
          "type": "address"
        },
        {
          "internalType": "uint256",
          "name": "_tokenId",
          "type": "uint256"
        }
      ],
      "name": "buyItem",
      "outputs": [],
      "stateMutability": "payable",
      "type": "function"
    },
    {
      "inputs": [
        {
          "internalType": "address",
          "name": "_nftAddress",
          "type": "address"
        },
        {
          "internalType": "uint256",
          "name": "_tokenId",
          "type": "uint256"
        }
      ],
      "name": "cancelListing",
      "outputs": [],
      "stateMutability": "nonpayable",
      "type": "function"
    },
    {
      "inputs": [
        {
          "internalType": "address",
          "name": "_nftAddress",
          "type": "address"
        },
        {
          "internalType": "uint256",
          "name": "_tokenId",
          "type": "uint256"
        },
        {
          "internalType": "uint256",
          "name": "_price",
          "type": "uint256"
        }
      ],
      "name": "listItem",
      "outputs": [],
      "stateMutability": "payable",
      "type": "function"
    },
    {
      "inputs": [],
      "name": "listingFee",
      "outputs": [
        {
          "internalType": "uint256",
          "name": "",
          "type": "uint256"
        }
      ],
      "stateMutability": "view",
      "type": "function"
    },
    {
      "inputs": [
        {
          "internalType": "address",
          "name": "",
          "type": "address"
        },
        {
          "internalType": "uint256",
          "name": "",
          "type": "uint256"
        }
      ],
      "name": "listings",
      "outputs": [
        {
          "internalType": "uint256",
          "name": "",
          "type": "uint256"
        }
      ],
      "stateMutability": "view",
      "type": "function"
    },
    {
      "inputs": [
        {
          "internalType": "address",
          "name": "",
          "type": "address"
        },
        {
          "internalType": "uint256",
          "name": "",
          "type": "uint256"
        }
      ],
      "name": "nfts",
      "outputs": [
        {
          "internalType": "address",
          "name": "",
          "type": "address"
        }
      ],
      "stateMutability": "view",
      "type": "function"
    },
    {
      "inputs": [],
      "name": "owner",
      "outputs": [
        {
          "internalType": "address",
          "name": "",
          "type": "address"
        }
      ],
      "stateMutability": "view",
      "type": "function"
    },
    {
      "inputs": [],
      "name": "renounceOwnership",
      "outputs": [],
      "stateMutability": "nonpayable",
      "type": "function"
    },
    {
      "inputs": [
        {
          "internalType": "uint256",
          "name": "_newFee",
          "type": "uint256"
        }
      ],
      "name": "setListingFee",
      "outputs": [],
      "stateMutability": "nonpayable",
      "type": "function"
    },
    {
      "inputs": [
        {
          "internalType": "address",
          "name": "newOwner",
          "type": "address"
        }
      ],
      "name": "transferOwnership",
      "outputs": [],
      "stateMutability": "nonpayable",
      "type": "function"
    }
  ],
  "bytecode": "0x6080604052662386f26fc1000060045534801561001b57600080fd5b50600160005561002a3361002f565b610081565b600180546001600160a01b038381166001600160a01b0319831681179093556040519116919082907f8be0079c531659141344cd1fd0a4f28419497f9722a3daafe3b4186f6b6457e090600090a35050565b610ffd806100906000396000f3fe60806040526004361061009b5760003560e01c806389bfd38f1161006457806389bfd38f146101705780638da5cb5b146101835780639f37092a146101a1578063a174e77a146101b4578063b2ddee06146101d4578063f2fde38b146101f457600080fd5b806207df30146100a0578063131dbd09146100eb57806343af356b1461010d5780636a1b7ecc14610145578063715018a61461015b575b600080fd5b3480156100ac57600080fd5b506100d86100bb366004610ef9565b600260209081526000928352604080842090915290825290205481565b6040519081526020015b60405180910390f35b3480156100f757600080fd5b5061010b610106366004610f5a565b610214565b005b34801561011957600080fd5b5061012d610128366004610ef9565b610276565b6040516001600160a01b0390911681526020016100e2565b34801561015157600080fd5b506100d860045481565b34801561016757600080fd5b5061010b6102ae565b61010b61017e366004610f25565b6102c2565b34801561018f57600080fd5b506001546001600160a01b031661012d565b61010b6101af366004610ef9565b6106b0565b3480156101c057600080fd5b5061010b6101cf366004610eb8565b61097e565b3480156101e057600080fd5b5061010b6101ef366004610ef9565b610b82565b34801561020057600080fd5b5061010b61020f366004610eb8565b610d39565b61021c610db2565b600081116102715760405162461bcd60e51b815260206004820152601960248201527f4665652073686f756c642062652061626f7665207a65726f2e0000000000000060448201526064015b60405180910390fd5b600455565b6003602052816000526040600020818154811061029257600080fd5b6000918252602090912001546001600160a01b03169150829050565b6102b6610db2565b6102c06000610e0c565b565b6102ca610e5e565b6001600160a01b0383166000908152600260209081526040808320858452909152902054839083903390156103385760405162461bcd60e51b815260206004820152601460248201527329b437bab6323713ba103132903634b9ba32b21760611b6044820152606401610268565b6040516331a9108f60e11b81526004810186905286908690339083906000906001600160a01b03831690636352211e9060240160206040518083038186803b15801561038357600080fd5b505afa158015610397573d6000803e3d6000fd5b505050506040513d601f19601f820116820180604052508101906103bb9190610edc565b9050806001600160a01b0316836001600160a01b03161461041e5760405162461bcd60e51b815260206004820152601d60248201527f53686f756c64206265206f776e6572206f662074686520746f6b656e2e0000006044820152606401610268565b6000891161045f5760405162461bcd60e51b815260206004820152600e60248201526d283934b1b2903737ba1039b2ba1760911b6044820152606401610268565b60045434146104a75760405162461bcd60e51b81526020600482015260146024820152732634b9ba34b733903332b2903737ba1036b2ba1760611b6044820152606401610268565b60405163020604bf60e21b8152600481018b90528b9030906001600160a01b0383169063081812fc9060240160206040518083038186803b1580156104eb57600080fd5b505afa1580156104ff573d6000803e3d6000fd5b505050506040513d601f19601f820116820180604052508101906105239190610edc565b6001600160a01b0316146105795760405162461bcd60e51b815260206004820152601a60248201527f417070726f7665206d61726b6574706c6163652066697273742e0000000000006044820152606401610268565b6001600160a01b038c1660009081526002602090815260408083208e845290915281208b90556105b16001546001600160a01b031690565b90506000816001600160a01b03163460405160006040518083038185875af1925050503d8060008114610600576040519150601f19603f3d011682016040523d82523d6000602084013e610605565b606091505b50509050806106485760405162461bcd60e51b815260206004820152600f60248201526e151c985b9cd9995c8819985a5b1959608a1b6044820152606401610268565b8c8e6001600160a01b0316336001600160a01b03167fd547e933094f12a9159076970143ebe73234e64480317844b0dcb36117116de48f60405161068e91815260200190565b60405180910390a450505050505050505050506106ab6001600055565b505050565b6001600160a01b0382166000908152600260209081526040808320848452909152902054829082906107185760405162461bcd60e51b815260206004820152601160248201527029b437bab632103132903634b9ba32b21760791b6044820152606401610268565b610720610e5e565b6001600160a01b038416600090815260026020908152604080832086845290915290205434146107845760405162461bcd60e51b815260206004820152600f60248201526e283934b1b29036b4b9b6b0ba31b41760891b6044820152606401610268565b6040516331a9108f60e11b81526004810184905284906000906001600160a01b03831690636352211e9060240160206040518083038186803b1580156107c957600080fd5b505afa1580156107dd573d6000803e3d6000fd5b505050506040513d601f19601f820116820180604052508101906108019190610edc565b6001600160a01b0387811660008181526002602090815260408083208b84529091528082209190915551632142170760e11b81529183166004830152336024830152604482018890529192506342842e0e90606401600060405180830381600087803b15801561087057600080fd5b505af1158015610884573d6000803e3d6000fd5b505050506000816001600160a01b03163460405160006040518083038185875af1925050503d80600081146108d5576040519150601f19603f3d011682016040523d82523d6000602084013e6108da565b606091505b505090508061091d5760405162461bcd60e51b815260206004820152600f60248201526e151c985b9cd9995c8819985a5b1959608a1b6044820152606401610268565b85876001600160a01b0316336001600160a01b03167f263223b1dd81e51054a4e6f791d45a4a1ddb4aadcd93a2dfd892615c3fdac1873460405161096391815260200190565b60405180910390a45050506109786001600055565b50505050565b806001600160a01b0316638da5cb5b6040518163ffffffff1660e01b8152600401602060405180830381600087803b1580156109b957600080fd5b505af11580156109cd573d6000803e3d6000fd5b505050506040513d601f19601f820116820180604052508101906109f19190610edc565b6001600160a01b0316336001600160a01b031614610a5b5760405162461bcd60e51b815260206004820152602160248201527f4f6e6c7920636f6c6c656374696f6e206f776e65722063616e206164642069746044820152601760f91b6064820152608401610268565b60005b33600090815260036020526040902054811015610b175733600090815260036020526040902080546001600160a01b038416919083908110610aa257610aa2610f9c565b6000918252602090912001546001600160a01b03161415610b055760405162461bcd60e51b815260206004820152601a60248201527f436f6c6c656374696f6e20616c7265616479206578697374732e0000000000006044820152606401610268565b80610b0f81610f73565b915050610a5e565b50336000818152600360209081526040808320805460018101825590845291832090910180546001600160a01b0319166001600160a01b03861690811790915590519092917fde026c5319b7c35f108a6ccfc922edc8008522079b610aee3c676bb7b7b7fb3591a350565b6001600160a01b038216600090815260026020908152604080832084845290915290205482908290610bea5760405162461bcd60e51b815260206004820152601160248201527029b437bab632103132903634b9ba32b21760791b6044820152606401610268565b6040516331a9108f60e11b81526004810184905284906000906001600160a01b03831690636352211e9060240160206040518083038186803b158015610c2f57600080fd5b505afa158015610c43573d6000803e3d6000fd5b505050506040513d601f19601f82011682018060405250810190610c679190610edc565b9050336001600160a01b0382161480610c885750336001600160a01b038716145b610ce05760405162461bcd60e51b815260206004820152602360248201527f43616c6c65722069736e2774206f776e6572206f72206e667420636f6e74726160448201526231ba1760e91b6064820152608401610268565b6001600160a01b03861660008181526002602090815260408083208984529091528082208290555187929133917f9ba1a3cb55ce8d63d072a886f94d2a744f50cddf82128e897d0661f5ec6231589190a4505050505050565b610d41610db2565b6001600160a01b038116610da65760405162461bcd60e51b815260206004820152602660248201527f4f776e61626c653a206e6577206f776e657220697320746865207a65726f206160448201526564647265737360d01b6064820152608401610268565b610daf81610e0c565b50565b6001546001600160a01b031633146102c05760405162461bcd60e51b815260206004820181905260248201527f4f776e61626c653a2063616c6c6572206973206e6f7420746865206f776e65726044820152606401610268565b600180546001600160a01b038381166001600160a01b0319831681179093556040519116919082907f8be0079c531659141344cd1fd0a4f28419497f9722a3daafe3b4186f6b6457e090600090a35050565b60026000541415610eb15760405162461bcd60e51b815260206004820152601f60248201527f5265656e7472616e637947756172643a207265656e7472616e742063616c6c006044820152606401610268565b6002600055565b600060208284031215610eca57600080fd5b8135610ed581610fb2565b9392505050565b600060208284031215610eee57600080fd5b8151610ed581610fb2565b60008060408385031215610f0c57600080fd5b8235610f1781610fb2565b946020939093013593505050565b600080600060608486031215610f3a57600080fd5b8335610f4581610fb2565b95602085013595506040909401359392505050565b600060208284031215610f6c57600080fd5b5035919050565b6000600019821415610f9557634e487b7160e01b600052601160045260246000fd5b5060010190565b634e487b7160e01b600052603260045260246000fd5b6001600160a01b0381168114610daf57600080fdfea264697066735822122057b441878630d713ceb64333e064d2e324d9539c86c07eb57e23fa1bb721409b64736f6c63430008070033",
  "linkReferences": {},
  "deployedLinkReferences": {}
}