{
  "_format": "hh-sol-artifact-1",
  "contractName": "NftMarketplaceV2",
  "sourceName": "contracts/NftMarketplaceV2.sol",
  "abi": [
    {
      "anonymous": false,
      "inputs": [
        {
          "indexed": true,
          "internalType": "address",
          "name": "deployer",
          "type": "address"
        },
        {
          "indexed": true,
          "internalType": "address",
          "name": "nftAddress",
          "type": "address"
        }
      ],
      "name": "CollectionAdded",
      "type": "event"
    },
    {
      "anonymous": false,
      "inputs": [
        {
          "indexed": true,
          "internalType": "address",
          "name": "buyer",
          "type": "address"
        },
        {
          "indexed": true,
          "internalType": "address",
          "name": "nftAddress",
          "type": "address"
        },
        {
          "indexed": true,
          "internalType": "uint256",
          "name": "tokenId",
          "type": "uint256"
        },
        {
          "indexed": false,
          "internalType": "uint256",
          "name": "price",
          "type": "uint256"
        }
      ],
      "name": "ItemBought",
      "type": "event"
    },
    {
      "anonymous": false,
      "inputs": [
        {
          "indexed": true,
          "internalType": "address",
          "name": "seller",
          "type": "address"
        },
        {
          "indexed": true,
          "internalType": "address",
          "name": "nftAddress",
          "type": "address"
        },
        {
          "indexed": true,
          "internalType": "uint256",
          "name": "tokenId",
          "type": "uint256"
        }
      ],
      "name": "ItemCanceled",
      "type": "event"
    },
    {
      "anonymous": false,
      "inputs": [
        {
          "indexed": true,
          "internalType": "address",
          "name": "seller",
          "type": "address"
        },
        {
          "indexed": true,
          "internalType": "address",
          "name": "nftAddress",
          "type": "address"
        },
        {
          "indexed": true,
          "internalType": "uint256",
          "name": "tokenId",
          "type": "uint256"
        },
        {
          "indexed": false,
          "internalType": "uint256",
          "name": "price",
          "type": "uint256"
        }
      ],
      "name": "ItemListed",
      "type": "event"
    },
    {
      "anonymous": false,
      "inputs": [
        {
          "indexed": true,
          "internalType": "address",
          "name": "previousOwner",
          "type": "address"
        },
        {
          "indexed": true,
          "internalType": "address",
          "name": "newOwner",
          "type": "address"
        }
      ],
      "name": "OwnershipTransferred",
      "type": "event"
    },
    {
      "inputs": [
        {
          "internalType": "address",
          "name": "_nftAddress",
          "type": "address"
        }
      ],
      "name": "addCollection",
      "outputs": [],
      "stateMutability": "nonpayable",
      "type": "function"
    },
    {
      "inputs": [
        {
          "internalType": "address",
          "name": "_nftAddress",
          "type": "address"
        },
        {
          "internalType": "uint256",
          "name": "_tokenId",
          "type": "uint256"
        }
      ],
      "name": "buyItem",
      "outputs": [],
      "stateMutability": "payable",
      "type": "function"
    },
    {
      "inputs": [
        {
          "internalType": "address",
          "name": "_nftAddress",
          "type": "address"
        },
        {
          "internalType": "uint256",
          "name": "_tokenId",
          "type": "uint256"
        }
      ],
      "name": "cancelListing",
      "outputs": [],
      "stateMutability": "nonpayable",
      "type": "function"
    },
    {
      "inputs": [
        {
          "internalType": "address",
          "name": "_nftAddress",
          "type": "address"
        },
        {
          "internalType": "uint256",
          "name": "_tokenId",
          "type": "uint256"
        },
        {
          "internalType": "uint256",
          "name": "_price",
          "type": "uint256"
        }
      ],
      "name": "listItem",
      "outputs": [],
      "stateMutability": "payable",
      "type": "function"
    },
    {
      "inputs": [],
      "name": "listingFee",
      "outputs": [
        {
          "internalType": "uint256",
          "name": "",
          "type": "uint256"
        }
      ],
      "stateMutability": "view",
      "type": "function"
    },
    {
      "inputs": [
        {
          "internalType": "address",
          "name": "",
          "type": "address"
        },
        {
          "internalType": "uint256",
          "name": "",
          "type": "uint256"
        }
      ],
      "name": "listings",
      "outputs": [
        {
          "internalType": "uint256",
          "name": "",
          "type": "uint256"
        }
      ],
      "stateMutability": "view",
      "type": "function"
    },
    {
      "inputs": [
        {
          "internalType": "address",
          "name": "",
          "type": "address"
        },
        {
          "internalType": "uint256",
          "name": "",
          "type": "uint256"
        }
      ],
      "name": "nfts",
      "outputs": [
        {
          "internalType": "address",
          "name": "",
          "type": "address"
        }
      ],
      "stateMutability": "view",
      "type": "function"
    },
    {
      "inputs": [],
      "name": "owner",
      "outputs": [
        {
          "internalType": "address",
          "name": "",
          "type": "address"
        }
      ],
      "stateMutability": "view",
      "type": "function"
    },
    {
      "inputs": [],
      "name": "renounceOwnership",
      "outputs": [],
      "stateMutability": "nonpayable",
      "type": "function"
    },
    {
      "inputs": [
        {
          "internalType": "uint256",
          "name": "_newFee",
          "type": "uint256"
        }
      ],
      "name": "setListingFee",
      "outputs": [],
      "stateMutability": "nonpayable",
      "type": "function"
    },
    {
      "inputs": [
        {
          "internalType": "address",
          "name": "newOwner",
          "type": "address"
        }
      ],
      "name": "transferOwnership",
      "outputs": [],
      "stateMutability": "nonpayable",
      "type": "function"
    },
    {
      "inputs": [],
      "name": "withdrawFunds",
      "outputs": [],
      "stateMutability": "nonpayable",
      "type": "function"
    }
  ],
  "bytecode": "0x6080604052662386f26fc1000060055534801561001b57600080fd5b50600160005561002a3361002f565b610081565b600180546001600160a01b038381166001600160a01b0319831681179093556040519116919082907f8be0079c531659141344cd1fd0a4f28419497f9722a3daafe3b4186f6b6457e090600090a35050565b611083806100906000396000f3fe6080604052600436106100a65760003560e01c806389bfd38f1161006457806389bfd38f146101905780638da5cb5b146101a35780639f37092a146101c1578063a174e77a146101d4578063b2ddee06146101f4578063f2fde38b1461021457600080fd5b806207df30146100ab578063131dbd09146100f657806324600fc31461011857806343af356b1461012d5780636a1b7ecc14610165578063715018a61461017b575b600080fd5b3480156100b757600080fd5b506100e36100c6366004610f2a565b600260209081526000928352604080842090915290825290205481565b6040519081526020015b60405180910390f35b34801561010257600080fd5b50610116610111366004610f8b565b610234565b005b34801561012457600080fd5b506101166102bc565b34801561013957600080fd5b5061014d610148366004610f2a565b6103b1565b6040516001600160a01b0390911681526020016100ed565b34801561017157600080fd5b506100e360055481565b34801561018757600080fd5b506101166103e9565b61011661019e366004610f56565b61041f565b3480156101af57600080fd5b506001546001600160a01b031661014d565b6101166101cf366004610f2a565b610789565b3480156101e057600080fd5b506101166101ef366004610ee9565b610a38565b34801561020057600080fd5b5061011661020f366004610f2a565b610c3c565b34801561022057600080fd5b5061011661022f366004610ee9565b610dfc565b6001546001600160a01b031633146102675760405162461bcd60e51b815260040161025e90610fa4565b60405180910390fd5b600081116102b75760405162461bcd60e51b815260206004820152601960248201527f4665652073686f756c642062652061626f7665207a65726f2e00000000000000604482015260640161025e565b600555565b336000908152600360205260409020546103105760405162461bcd60e51b8152602060048201526015602482015274273790333ab73239903a37903bb4ba34323930bb9760591b604482015260640161025e565b33600081815260036020526040808220805490839055905190929083908381818185875af1925050503d8060008114610365576040519150601f19603f3d011682016040523d82523d6000602084013e61036a565b606091505b50509050806103ad5760405162461bcd60e51b815260206004820152600f60248201526e151c985b9cd9995c8819985a5b1959608a1b604482015260640161025e565b5050565b600460205281600052604060002081815481106103cd57600080fd5b6000918252602090912001546001600160a01b03169150829050565b6001546001600160a01b031633146104135760405162461bcd60e51b815260040161025e90610fa4565b61041d6000610e97565b565b6001600160a01b03831660009081526002602090815260408083208584529091529020548390839033901561048d5760405162461bcd60e51b815260206004820152601460248201527329b437bab6323713ba103132903634b9ba32b21760611b604482015260640161025e565b6040516331a9108f60e11b81526004810186905286908690339083906000906001600160a01b03831690636352211e9060240160206040518083038186803b1580156104d857600080fd5b505afa1580156104ec573d6000803e3d6000fd5b505050506040513d601f19601f820116820180604052508101906105109190610f0d565b9050806001600160a01b0316836001600160a01b0316146105735760405162461bcd60e51b815260206004820152601d60248201527f53686f756c64206265206f776e6572206f662074686520746f6b656e2e000000604482015260640161025e565b600089116105b45760405162461bcd60e51b815260206004820152600e60248201526d283934b1b2903737ba1039b2ba1760911b604482015260640161025e565b60055434146105fc5760405162461bcd60e51b81526020600482015260146024820152732634b9ba34b733903332b2903737ba1036b2ba1760611b604482015260640161025e565b60405163020604bf60e21b8152600481018b90528b9030906001600160a01b0383169063081812fc9060240160206040518083038186803b15801561064057600080fd5b505afa158015610654573d6000803e3d6000fd5b505050506040513d601f19601f820116820180604052508101906106789190610f0d565b6001600160a01b0316146106ce5760405162461bcd60e51b815260206004820152601a60248201527f417070726f7665206d61726b6574706c6163652066697273742e000000000000604482015260640161025e565b6001600160a01b038c1660009081526002602090815260408083208e845290915281208b90556107066001546001600160a01b031690565b6001600160a01b038116600090815260036020526040812080549293503492909190610733908490610fd9565b90915550506040518b81528c906001600160a01b038f169033907fd547e933094f12a9159076970143ebe73234e64480317844b0dcb36117116de49060200160405180910390a450505050505050505050505050565b6001600160a01b0382166000908152600260209081526040808320848452909152902054829082906107f15760405162461bcd60e51b815260206004820152601160248201527029b437bab632103132903634b9ba32b21760791b604482015260640161025e565b600260005414156108445760405162461bcd60e51b815260206004820152601f60248201527f5265656e7472616e637947756172643a207265656e7472616e742063616c6c00604482015260640161025e565b600260008181556001600160a01b038616815260209182526040808220868352909252205434146108a95760405162461bcd60e51b815260206004820152600f60248201526e283934b1b29036b4b9b6b0ba31b41760891b604482015260640161025e565b6040516331a9108f60e11b81526004810184905284906000906001600160a01b03831690636352211e9060240160206040518083038186803b1580156108ee57600080fd5b505afa158015610902573d6000803e3d6000fd5b505050506040513d601f19601f820116820180604052508101906109269190610f0d565b6001600160a01b038116600090815260036020526040812080549293503492909190610953908490610fd9565b90915550506001600160a01b0386811660008181526002602090815260408083208a84529091528082209190915551632142170760e11b8152918316600483015233602483015260448201879052906342842e0e90606401600060405180830381600087803b1580156109c557600080fd5b505af11580156109d9573d6000803e3d6000fd5b5050505084866001600160a01b0316336001600160a01b03167f263223b1dd81e51054a4e6f791d45a4a1ddb4aadcd93a2dfd892615c3fdac18734604051610a2391815260200190565b60405180910390a45050600160005550505050565b806001600160a01b0316638da5cb5b6040518163ffffffff1660e01b8152600401602060405180830381600087803b158015610a7357600080fd5b505af1158015610a87573d6000803e3d6000fd5b505050506040513d601f19601f82011682018060405250810190610aab9190610f0d565b6001600160a01b0316336001600160a01b031614610b155760405162461bcd60e51b815260206004820152602160248201527f4f6e6c7920636f6c6c656374696f6e206f776e65722063616e206164642069746044820152601760f91b606482015260840161025e565b60005b33600090815260046020526040902054811015610bd15733600090815260046020526040902080546001600160a01b038416919083908110610b5c57610b5c611022565b6000918252602090912001546001600160a01b03161415610bbf5760405162461bcd60e51b815260206004820152601960248201527f436f6c6c656374696f6e20616c72656164792065786973747300000000000000604482015260640161025e565b80610bc981610ff1565b915050610b18565b50336000818152600460209081526040808320805460018101825590845291832090910180546001600160a01b0319166001600160a01b03861690811790915590519092917fde026c5319b7c35f108a6ccfc922edc8008522079b610aee3c676bb7b7b7fb3591a350565b6001600160a01b038216600090815260026020908152604080832084845290915290205482908290610ca45760405162461bcd60e51b815260206004820152601160248201527029b437bab632103132903634b9ba32b21760791b604482015260640161025e565b6040516331a9108f60e11b81526004810184905284906000906001600160a01b03831690636352211e9060240160206040518083038186803b158015610ce957600080fd5b505afa158015610cfd573d6000803e3d6000fd5b505050506040513d601f19601f82011682018060405250810190610d219190610f0d565b9050336001600160a01b0382161480610d425750336001600160a01b038716145b610da35760405162461bcd60e51b815260206004820152602c60248201527f4f6e6c7920746f6b656e206f776e6572206f72204e465420636f6e747261637460448201526b1031b0b71031b0b731b2b61760a11b606482015260840161025e565b6001600160a01b03861660008181526002602090815260408083208984529091528082208290555187929133917f9ba1a3cb55ce8d63d072a886f94d2a744f50cddf82128e897d0661f5ec6231589190a4505050505050565b6001546001600160a01b03163314610e265760405162461bcd60e51b815260040161025e90610fa4565b6001600160a01b038116610e8b5760405162461bcd60e51b815260206004820152602660248201527f4f776e61626c653a206e6577206f776e657220697320746865207a65726f206160448201526564647265737360d01b606482015260840161025e565b610e9481610e97565b50565b600180546001600160a01b038381166001600160a01b0319831681179093556040519116919082907f8be0079c531659141344cd1fd0a4f28419497f9722a3daafe3b4186f6b6457e090600090a35050565b600060208284031215610efb57600080fd5b8135610f0681611038565b9392505050565b600060208284031215610f1f57600080fd5b8151610f0681611038565b60008060408385031215610f3d57600080fd5b8235610f4881611038565b946020939093013593505050565b600080600060608486031215610f6b57600080fd5b8335610f7681611038565b95602085013595506040909401359392505050565b600060208284031215610f9d57600080fd5b5035919050565b6020808252818101527f4f776e61626c653a2063616c6c6572206973206e6f7420746865206f776e6572604082015260600190565b60008219821115610fec57610fec61100c565b500190565b60006000198214156110055761100561100c565b5060010190565b634e487b7160e01b600052601160045260246000fd5b634e487b7160e01b600052603260045260246000fd5b6001600160a01b0381168114610e9457600080fdfea264697066735822122023783bcbcf19ebf50c2e60c4177db4f349c134ccea8091298191cdbd68d0c55c64736f6c63430008070033",
  "linkReferences": {},
  "deployedLinkReferences": {}
}